{
  "abi": [
    {
      "type": "constructor",
      "inputs": [
        {
          "name": "factory_",
          "type": "address",
          "internalType": "address"
        }
      ],
      "stateMutability": "nonpayable"
    },
    {
      "type": "function",
      "name": "allowance",
      "inputs": [
        {
          "name": "owner",
          "type": "address",
          "internalType": "address"
        },
        {
          "name": "spender",
          "type": "address",
          "internalType": "address"
        }
      ],
      "outputs": [
        {
          "name": "",
          "type": "uint256",
          "internalType": "uint256"
        }
      ],
      "stateMutability": "view"
    },
    {
      "type": "function",
      "name": "approve",
      "inputs": [
        {
          "name": "spender",
          "type": "address",
          "internalType": "address"
        },
        {
          "name": "value",
          "type": "uint256",
          "internalType": "uint256"
        }
      ],
      "outputs": [
        {
          "name": "",
          "type": "bool",
          "internalType": "bool"
        }
      ],
      "stateMutability": "nonpayable"
    },
    {
      "type": "function",
      "name": "balanceOf",
      "inputs": [
        {
          "name": "account",
          "type": "address",
          "internalType": "address"
        }
      ],
      "outputs": [
        {
          "name": "",
          "type": "uint256",
          "internalType": "uint256"
        }
      ],
      "stateMutability": "view"
    },
    {
      "type": "function",
      "name": "decimals",
      "inputs": [],
      "outputs": [
        {
          "name": "",
          "type": "uint8",
          "internalType": "uint8"
        }
      ],
      "stateMutability": "view"
    },
    {
      "type": "function",
      "name": "factory",
      "inputs": [],
      "outputs": [
        {
          "name": "",
          "type": "address",
          "internalType": "address"
        }
      ],
      "stateMutability": "view"
    },
    {
      "type": "function",
      "name": "factoryMint",
      "inputs": [
        {
          "name": "to",
          "type": "address",
          "internalType": "address"
        },
        {
          "name": "amount",
          "type": "uint256",
          "internalType": "uint256"
        }
      ],
      "outputs": [],
      "stateMutability": "nonpayable"
    },
    {
      "type": "function",
      "name": "initialize",
      "inputs": [
        {
          "name": "name_",
          "type": "string",
          "internalType": "string"
        },
        {
          "name": "symbol_",
          "type": "string",
          "internalType": "string"
        },
        {
          "name": "args",
          "type": "bytes",
          "internalType": "bytes"
        }
      ],
      "outputs": [],
      "stateMutability": "nonpayable"
    },
    {
      "type": "function",
      "name": "name",
      "inputs": [],
      "outputs": [
        {
          "name": "",
          "type": "string",
          "internalType": "string"
        }
      ],
      "stateMutability": "view"
    },
    {
      "type": "function",
      "name": "symbol",
      "inputs": [],
      "outputs": [
        {
          "name": "",
          "type": "string",
          "internalType": "string"
        }
      ],
      "stateMutability": "view"
    },
    {
      "type": "function",
      "name": "totalSupply",
      "inputs": [],
      "outputs": [
        {
          "name": "",
          "type": "uint256",
          "internalType": "uint256"
        }
      ],
      "stateMutability": "view"
    },
    {
      "type": "function",
      "name": "transfer",
      "inputs": [
        {
          "name": "to",
          "type": "address",
          "internalType": "address"
        },
        {
          "name": "value",
          "type": "uint256",
          "internalType": "uint256"
        }
      ],
      "outputs": [
        {
          "name": "",
          "type": "bool",
          "internalType": "bool"
        }
      ],
      "stateMutability": "nonpayable"
    },
    {
      "type": "function",
      "name": "transferFrom",
      "inputs": [
        {
          "name": "from",
          "type": "address",
          "internalType": "address"
        },
        {
          "name": "to",
          "type": "address",
          "internalType": "address"
        },
        {
          "name": "value",
          "type": "uint256",
          "internalType": "uint256"
        }
      ],
      "outputs": [
        {
          "name": "",
          "type": "bool",
          "internalType": "bool"
        }
      ],
      "stateMutability": "nonpayable"
    },
    {
      "type": "event",
      "name": "Approval",
      "inputs": [
        {
          "name": "owner",
          "type": "address",
          "indexed": true,
          "internalType": "address"
        },
        {
          "name": "spender",
          "type": "address",
          "indexed": true,
          "internalType": "address"
        },
        {
          "name": "value",
          "type": "uint256",
          "indexed": false,
          "internalType": "uint256"
        }
      ],
      "anonymous": false
    },
    {
      "type": "event",
      "name": "Initialized",
      "inputs": [
        {
          "name": "version",
          "type": "uint64",
          "indexed": false,
          "internalType": "uint64"
        }
      ],
      "anonymous": false
    },
    {
      "type": "event",
      "name": "Transfer",
      "inputs": [
        {
          "name": "from",
          "type": "address",
          "indexed": true,
          "internalType": "address"
        },
        {
          "name": "to",
          "type": "address",
          "indexed": true,
          "internalType": "address"
        },
        {
          "name": "value",
          "type": "uint256",
          "indexed": false,
          "internalType": "uint256"
        }
      ],
      "anonymous": false
    },
    {
      "type": "error",
      "name": "ERC20InsufficientAllowance",
      "inputs": [
        {
          "name": "spender",
          "type": "address",
          "internalType": "address"
        },
        {
          "name": "allowance",
          "type": "uint256",
          "internalType": "uint256"
        },
        {
          "name": "needed",
          "type": "uint256",
          "internalType": "uint256"
        }
      ]
    },
    {
      "type": "error",
      "name": "ERC20InsufficientBalance",
      "inputs": [
        {
          "name": "sender",
          "type": "address",
          "internalType": "address"
        },
        {
          "name": "balance",
          "type": "uint256",
          "internalType": "uint256"
        },
        {
          "name": "needed",
          "type": "uint256",
          "internalType": "uint256"
        }
      ]
    },
    {
      "type": "error",
      "name": "ERC20InvalidApprover",
      "inputs": [
        {
          "name": "approver",
          "type": "address",
          "internalType": "address"
        }
      ]
    },
    {
      "type": "error",
      "name": "ERC20InvalidReceiver",
      "inputs": [
        {
          "name": "receiver",
          "type": "address",
          "internalType": "address"
        }
      ]
    },
    {
      "type": "error",
      "name": "ERC20InvalidSender",
      "inputs": [
        {
          "name": "sender",
          "type": "address",
          "internalType": "address"
        }
      ]
    },
    {
      "type": "error",
      "name": "ERC20InvalidSpender",
      "inputs": [
        {
          "name": "spender",
          "type": "address",
          "internalType": "address"
        }
      ]
    },
    {
      "type": "error",
      "name": "InvalidInitialization",
      "inputs": []
    },
    {
      "type": "error",
      "name": "NotInitializing",
      "inputs": []
    },
    {
      "type": "error",
      "name": "TMBaseERC20__OnlyFactory",
      "inputs": []
    },
    {
      "type": "error",
      "name": "TMERC20__InvalidArgsLength",
      "inputs": []
    }
  ],
  "bytecode": {
    "object": "0x60a060405234801561001057600080fd5b50604051610ef8380380610ef883398101604081905261002f91610040565b6001600160a01b0316608052610070565b60006020828403121561005257600080fd5b81516001600160a01b038116811461006957600080fd5b9392505050565b608051610e66610092600039600081816101f801526103fc0152610e666000f3fe608060405234801561001057600080fd5b50600436106100d45760003560e01c806395d89b4111610081578063c45a01551161005b578063c45a0155146101eb578063dd62ed3e14610222578063e649e2fb1461027a57600080fd5b806395d89b41146101bb578063a4f0ecd3146101c3578063a9059cbb146101d857600080fd5b806323b872dd116100b257806323b872dd1461014b578063313ce5671461015e57806370a082311461017357600080fd5b806306fdde03146100d9578063095ea7b3146100f757806318160ddd1461011a575b600080fd5b6100e161028d565b6040516100ee9190610a26565b60405180910390f35b61010a610105366004610a90565b610362565b60405190151581526020016100ee565b7f52c63247e1f47db19d5ce0460030c497f067ca4cebf71ba98eeadabe20bace02545b6040519081526020016100ee565b61010a610159366004610aba565b61037c565b60005460405160ff90911681526020016100ee565b61013d610181366004610af6565b6001600160a01b031660009081527f52c63247e1f47db19d5ce0460030c497f067ca4cebf71ba98eeadabe20bace00602052604090205490565b6100e16103a0565b6101d66101d1366004610a90565b6103f1565b005b61010a6101e6366004610a90565b610448565b6040516001600160a01b037f00000000000000000000000000000000000000000000000000000000000000001681526020016100ee565b61013d610230366004610b18565b6001600160a01b0391821660009081527f52c63247e1f47db19d5ce0460030c497f067ca4cebf71ba98eeadabe20bace016020908152604080832093909416825291909152205490565b6101d6610288366004610bee565b610456565b7f52c63247e1f47db19d5ce0460030c497f067ca4cebf71ba98eeadabe20bace0380546060917f52c63247e1f47db19d5ce0460030c497f067ca4cebf71ba98eeadabe20bace00916102de90610ca4565b80601f016020809104026020016040519081016040528092919081815260200182805461030a90610ca4565b80156103575780601f1061032c57610100808354040283529160200191610357565b820191906000526020600020905b81548152906001019060200180831161033a57829003601f168201915b505050505091505090565b600033610370818585610588565b60019150505b92915050565b60003361038a85828561059a565b61039585858561063c565b506001949350505050565b7f52c63247e1f47db19d5ce0460030c497f067ca4cebf71ba98eeadabe20bace0480546060917f52c63247e1f47db19d5ce0460030c497f067ca4cebf71ba98eeadabe20bace00916102de90610ca4565b336001600160a01b037f0000000000000000000000000000000000000000000000000000000000000000161461043a5760405163045f09b560e11b815260040160405180910390fd5b610444828261069b565b5050565b60003361037081858561063c565b7ff0c57e16840df040f15088dc2f81fe391c3923bec73e23a9662efc9c229c6a00805468010000000000000000810460ff16159067ffffffffffffffff166000811580156104a15750825b905060008267ffffffffffffffff1660011480156104be5750303b155b9050811580156104cc575080155b156104ea5760405163f92ee8a960e01b815260040160405180910390fd5b845467ffffffffffffffff19166001178555831561051e57845468ff00000000000000001916680100000000000000001785555b61052889896106d1565b61053287876106e3565b831561057d57845468ff000000000000000019168555604051600181527fc7f505b2f371ae2175ee4913f4499e1f2633a7b5936321eed1cdaeb6115181d29060200160405180910390a15b505050505050505050565b6105958383836001610729565b505050565b6001600160a01b0383811660009081527f52c63247e1f47db19d5ce0460030c497f067ca4cebf71ba98eeadabe20bace0160209081526040808320938616835292905220546000198114610636578181101561062757604051637dc7a0d960e11b81526001600160a01b038416600482015260248101829052604481018390526064015b60405180910390fd5b61063684848484036000610729565b50505050565b6001600160a01b03831661066657604051634b637e8f60e11b81526000600482015260240161061e565b6001600160a01b0382166106905760405163ec442f0560e01b81526000600482015260240161061e565b610595838383610823565b6001600160a01b0382166106c55760405163ec442f0560e01b81526000600482015260240161061e565b61044460008383610823565b6106d9610973565b61044482826109c3565b602081101561070557604051633e22678560e01b815260040160405180910390fd5b61071181830183610cde565b6000805460ff191660ff929092169190911790555050565b7f52c63247e1f47db19d5ce0460030c497f067ca4cebf71ba98eeadabe20bace006001600160a01b0385166107745760405163e602df0560e01b81526000600482015260240161061e565b6001600160a01b03841661079e57604051634a1406b160e11b81526000600482015260240161061e565b6001600160a01b0380861660009081526001830160209081526040808320938816835292905220839055811561081c57836001600160a01b0316856001600160a01b03167f8c5be1e5ebec7d5bd14f71427d1e84f3dd0314c0f7b2291e5b200ac8c7c3b9258560405161081391815260200190565b60405180910390a35b5050505050565b7f52c63247e1f47db19d5ce0460030c497f067ca4cebf71ba98eeadabe20bace006001600160a01b03841661087157818160020160008282546108669190610d01565b909155506108e39050565b6001600160a01b038416600090815260208290526040902054828110156108c45760405163391434e360e21b81526001600160a01b0386166004820152602481018290526044810184905260640161061e565b6001600160a01b03851660009081526020839052604090209083900390555b6001600160a01b038316610901576002810180548390039055610920565b6001600160a01b03831660009081526020829052604090208054830190555b826001600160a01b0316846001600160a01b03167fddf252ad1be2c89b69c2b068fc378daa952ba7f163c4a11628f55a4df523b3ef8460405161096591815260200190565b60405180910390a350505050565b7ff0c57e16840df040f15088dc2f81fe391c3923bec73e23a9662efc9c229c6a005468010000000000000000900460ff166109c157604051631afcd79f60e31b815260040160405180910390fd5b565b6109cb610973565b7f52c63247e1f47db19d5ce0460030c497f067ca4cebf71ba98eeadabe20bace007f52c63247e1f47db19d5ce0460030c497f067ca4cebf71ba98eeadabe20bace03610a178482610d70565b50600481016106368382610d70565b600060208083528351808285015260005b81811015610a5357858101830151858201604001528201610a37565b506000604082860101526040601f19601f8301168501019250505092915050565b80356001600160a01b0381168114610a8b57600080fd5b919050565b60008060408385031215610aa357600080fd5b610aac83610a74565b946020939093013593505050565b600080600060608486031215610acf57600080fd5b610ad884610a74565b9250610ae660208501610a74565b9150604084013590509250925092565b600060208284031215610b0857600080fd5b610b1182610a74565b9392505050565b60008060408385031215610b2b57600080fd5b610b3483610a74565b9150610b4260208401610a74565b90509250929050565b634e487b7160e01b600052604160045260246000fd5b600082601f830112610b7257600080fd5b813567ffffffffffffffff80821115610b8d57610b8d610b4b565b604051601f8301601f19908116603f01168101908282118183101715610bb557610bb5610b4b565b81604052838152866020858801011115610bce57600080fd5b836020870160208301376000602085830101528094505050505092915050565b60008060008060608587031215610c0457600080fd5b843567ffffffffffffffff80821115610c1c57600080fd5b610c2888838901610b61565b95506020870135915080821115610c3e57600080fd5b610c4a88838901610b61565b94506040870135915080821115610c6057600080fd5b818701915087601f830112610c7457600080fd5b813581811115610c8357600080fd5b886020828501011115610c9557600080fd5b95989497505060200194505050565b600181811c90821680610cb857607f821691505b602082108103610cd857634e487b7160e01b600052602260045260246000fd5b50919050565b600060208284031215610cf057600080fd5b813560ff81168114610b1157600080fd5b8082018082111561037657634e487b7160e01b600052601160045260246000fd5b601f82111561059557600081815260208120601f850160051c81016020861015610d495750805b601f850160051c820191505b81811015610d6857828155600101610d55565b505050505050565b815167ffffffffffffffff811115610d8a57610d8a610b4b565b610d9e81610d988454610ca4565b84610d22565b602080601f831160018114610dd35760008415610dbb5750858301515b600019600386901b1c1916600185901b178555610d68565b600085815260208120601f198616915b82811015610e0257888601518255948401946001909101908401610de3565b5085821015610e205787850151600019600388901b60f8161c191681555b5050505050600190811b0190555056fea26469706673582212205105662edccd13a731765cdddab2758927da0caa257d4f18597e860e233cc80d64736f6c63430008140033",
    "linkReferences": {}
  },
  "methodIdentifiers": {
    "allowance(address,address)": "dd62ed3e",
    "approve(address,uint256)": "095ea7b3",
    "balanceOf(address)": "70a08231",
    "decimals()": "313ce567",
    "factory()": "c45a0155",
    "factoryMint(address,uint256)": "a4f0ecd3",
    "initialize(string,string,bytes)": "e649e2fb",
    "name()": "06fdde03",
    "symbol()": "95d89b41",
    "totalSupply()": "18160ddd",
    "transfer(address,uint256)": "a9059cbb",
    "transferFrom(address,address,uint256)": "23b872dd"
  },
  "id": 78
}