{
  "abi": [
    {
      "type": "constructor",
      "inputs": [
        {
          "name": "staking",
          "type": "address",
          "internalType": "address"
        }
      ],
      "stateMutability": "nonpayable"
    },
    {
      "type": "function",
      "name": "STAKING",
      "inputs": [],
      "outputs": [
        {
          "name": "",
          "type": "address",
          "internalType": "address"
        }
      ],
      "stateMutability": "view"
    },
    {
      "type": "function",
      "name": "acceptOwnership",
      "inputs": [],
      "outputs": [],
      "stateMutability": "nonpayable"
    },
    {
      "type": "function",
      "name": "addQuoteToken",
      "inputs": [
        {
          "name": "quoteToken",
          "type": "address",
          "internalType": "address"
        }
      ],
      "outputs": [],
      "stateMutability": "nonpayable"
    },
    {
      "type": "function",
      "name": "claimFees",
      "inputs": [
        {
          "name": "market",
          "type": "address",
          "internalType": "address"
        }
      ],
      "outputs": [
        {
          "name": "claimedFees",
          "type": "uint256",
          "internalType": "uint256"
        }
      ],
      "stateMutability": "nonpayable"
    },
    {
      "type": "function",
      "name": "claimProtocolFees",
      "inputs": [
        {
          "name": "token",
          "type": "address",
          "internalType": "address"
        }
      ],
      "outputs": [
        {
          "name": "claimedFees",
          "type": "uint256",
          "internalType": "uint256"
        }
      ],
      "stateMutability": "nonpayable"
    },
    {
      "type": "function",
      "name": "claimReferrerFees",
      "inputs": [
        {
          "name": "token",
          "type": "address",
          "internalType": "address"
        }
      ],
      "outputs": [
        {
          "name": "claimedFees",
          "type": "uint256",
          "internalType": "uint256"
        }
      ],
      "stateMutability": "nonpayable"
    },
    {
      "type": "function",
      "name": "createMarketAndToken",
      "inputs": [
        {
          "name": "parameters",
          "type": "tuple",
          "internalType": "struct ITMFactory.MarketCreationParameters",
          "components": [
            {
              "name": "tokenType",
              "type": "uint96",
              "internalType": "uint96"
            },
            {
              "name": "name",
              "type": "string",
              "internalType": "string"
            },
            {
              "name": "symbol",
              "type": "string",
              "internalType": "string"
            },
            {
              "name": "quoteToken",
              "type": "address",
              "internalType": "address"
            },
            {
              "name": "totalSupply",
              "type": "uint256",
              "internalType": "uint256"
            },
            {
              "name": "creatorShare",
              "type": "uint16",
              "internalType": "uint16"
            },
            {
              "name": "stakingShare",
              "type": "uint16",
              "internalType": "uint16"
            },
            {
              "name": "bidPrices",
              "type": "uint256[]",
              "internalType": "uint256[]"
            },
            {
              "name": "askPrices",
              "type": "uint256[]",
              "internalType": "uint256[]"
            },
            {
              "name": "args",
              "type": "bytes",
              "internalType": "bytes"
            }
          ]
        }
      ],
      "outputs": [
        {
          "name": "baseToken",
          "type": "address",
          "internalType": "address"
        },
        {
          "name": "market",
          "type": "address",
          "internalType": "address"
        }
      ],
      "stateMutability": "nonpayable"
    },
    {
      "type": "function",
      "name": "getCreatorMarketAt",
      "inputs": [
        {
          "name": "creator",
          "type": "address",
          "internalType": "address"
        },
        {
          "name": "index",
          "type": "uint256",
          "internalType": "uint256"
        }
      ],
      "outputs": [
        {
          "name": "",
          "type": "address",
          "internalType": "address"
        }
      ],
      "stateMutability": "view"
    },
    {
      "type": "function",
      "name": "getCreatorMarketsLength",
      "inputs": [
        {
          "name": "creator",
          "type": "address",
          "internalType": "address"
        }
      ],
      "outputs": [
        {
          "name": "",
          "type": "uint256",
          "internalType": "uint256"
        }
      ],
      "stateMutability": "view"
    },
    {
      "type": "function",
      "name": "getCreatorOf",
      "inputs": [
        {
          "name": "market",
          "type": "address",
          "internalType": "address"
        }
      ],
      "outputs": [
        {
          "name": "",
          "type": "address",
          "internalType": "address"
        }
      ],
      "stateMutability": "view"
    },
    {
      "type": "function",
      "name": "getDefaultProtocolShare",
      "inputs": [],
      "outputs": [
        {
          "name": "",
          "type": "uint256",
          "internalType": "uint256"
        }
      ],
      "stateMutability": "view"
    },
    {
      "type": "function",
      "name": "getFeeSharesOf",
      "inputs": [
        {
          "name": "market",
          "type": "address",
          "internalType": "address"
        }
      ],
      "outputs": [
        {
          "name": "protocolShare",
          "type": "uint256",
          "internalType": "uint256"
        },
        {
          "name": "creatorShare",
          "type": "uint256",
          "internalType": "uint256"
        },
        {
          "name": "stakingShare",
          "type": "uint256",
          "internalType": "uint256"
        }
      ],
      "stateMutability": "view"
    },
    {
      "type": "function",
      "name": "getMarket",
      "inputs": [
        {
          "name": "tokenA",
          "type": "address",
          "internalType": "address"
        },
        {
          "name": "tokenB",
          "type": "address",
          "internalType": "address"
        }
      ],
      "outputs": [
        {
          "name": "",
          "type": "bool",
          "internalType": "bool"
        },
        {
          "name": "",
          "type": "address",
          "internalType": "address"
        }
      ],
      "stateMutability": "view"
    },
    {
      "type": "function",
      "name": "getMarketAt",
      "inputs": [
        {
          "name": "index",
          "type": "uint256",
          "internalType": "uint256"
        }
      ],
      "outputs": [
        {
          "name": "",
          "type": "address",
          "internalType": "address"
        }
      ],
      "stateMutability": "view"
    },
    {
      "type": "function",
      "name": "getMarketOf",
      "inputs": [
        {
          "name": "token",
          "type": "address",
          "internalType": "address"
        }
      ],
      "outputs": [
        {
          "name": "",
          "type": "address",
          "internalType": "address"
        }
      ],
      "stateMutability": "view"
    },
    {
      "type": "function",
      "name": "getMarketsLength",
      "inputs": [],
      "outputs": [
        {
          "name": "",
          "type": "uint256",
          "internalType": "uint256"
        }
      ],
      "stateMutability": "view"
    },
    {
      "type": "function",
      "name": "getProtocolFeeRecipient",
      "inputs": [],
      "outputs": [
        {
          "name": "",
          "type": "address",
          "internalType": "address"
        }
      ],
      "stateMutability": "view"
    },
    {
      "type": "function",
      "name": "getProtocolFees",
      "inputs": [
        {
          "name": "token",
          "type": "address",
          "internalType": "address"
        }
      ],
      "outputs": [
        {
          "name": "",
          "type": "uint256",
          "internalType": "uint256"
        }
      ],
      "stateMutability": "view"
    },
    {
      "type": "function",
      "name": "getQuoteTokens",
      "inputs": [],
      "outputs": [
        {
          "name": "",
          "type": "address[]",
          "internalType": "address[]"
        }
      ],
      "stateMutability": "view"
    },
    {
      "type": "function",
      "name": "getReferrerFeesOf",
      "inputs": [
        {
          "name": "token",
          "type": "address",
          "internalType": "address"
        },
        {
          "name": "referrer",
          "type": "address",
          "internalType": "address"
        }
      ],
      "outputs": [
        {
          "name": "",
          "type": "uint256",
          "internalType": "uint256"
        }
      ],
      "stateMutability": "view"
    },
    {
      "type": "function",
      "name": "getReferrerShare",
      "inputs": [],
      "outputs": [
        {
          "name": "",
          "type": "uint256",
          "internalType": "uint256"
        }
      ],
      "stateMutability": "view"
    },
    {
      "type": "function",
      "name": "getTokenImplementation",
      "inputs": [
        {
          "name": "tokenType",
          "type": "uint96",
          "internalType": "uint96"
        }
      ],
      "outputs": [
        {
          "name": "",
          "type": "address",
          "internalType": "address"
        }
      ],
      "stateMutability": "view"
    },
    {
      "type": "function",
      "name": "getTokenType",
      "inputs": [
        {
          "name": "token",
          "type": "address",
          "internalType": "address"
        }
      ],
      "outputs": [
        {
          "name": "",
          "type": "uint256",
          "internalType": "uint256"
        }
      ],
      "stateMutability": "view"
    },
    {
      "type": "function",
      "name": "handleProtocolFees",
      "inputs": [
        {
          "name": "token",
          "type": "address",
          "internalType": "address"
        },
        {
          "name": "referrer",
          "type": "address",
          "internalType": "address"
        },
        {
          "name": "protocolFees",
          "type": "uint256",
          "internalType": "uint256"
        }
      ],
      "outputs": [
        {
          "name": "",
          "type": "bool",
          "internalType": "bool"
        }
      ],
      "stateMutability": "nonpayable"
    },
    {
      "type": "function",
      "name": "initialize",
      "inputs": [
        {
          "name": "protocolShare",
          "type": "uint16",
          "internalType": "uint16"
        },
        {
          "name": "referrerShare",
          "type": "uint16",
          "internalType": "uint16"
        },
        {
          "name": "protocolFeeRecipient",
          "type": "address",
          "internalType": "address"
        },
        {
          "name": "initialOwner",
          "type": "address",
          "internalType": "address"
        }
      ],
      "outputs": [],
      "stateMutability": "nonpayable"
    },
    {
      "type": "function",
      "name": "isQuoteToken",
      "inputs": [
        {
          "name": "quoteToken",
          "type": "address",
          "internalType": "address"
        }
      ],
      "outputs": [
        {
          "name": "",
          "type": "bool",
          "internalType": "bool"
        }
      ],
      "stateMutability": "view"
    },
    {
      "type": "function",
      "name": "owner",
      "inputs": [],
      "outputs": [
        {
          "name": "",
          "type": "address",
          "internalType": "address"
        }
      ],
      "stateMutability": "view"
    },
    {
      "type": "function",
      "name": "pendingOwner",
      "inputs": [],
      "outputs": [
        {
          "name": "",
          "type": "address",
          "internalType": "address"
        }
      ],
      "stateMutability": "view"
    },
    {
      "type": "function",
      "name": "removeQuoteToken",
      "inputs": [
        {
          "name": "quoteToken",
          "type": "address",
          "internalType": "address"
        }
      ],
      "outputs": [],
      "stateMutability": "nonpayable"
    },
    {
      "type": "function",
      "name": "renounceOwnership",
      "inputs": [],
      "outputs": [],
      "stateMutability": "nonpayable"
    },
    {
      "type": "function",
      "name": "transferOwnership",
      "inputs": [
        {
          "name": "newOwner",
          "type": "address",
          "internalType": "address"
        }
      ],
      "outputs": [],
      "stateMutability": "nonpayable"
    },
    {
      "type": "function",
      "name": "updateCreatorOf",
      "inputs": [
        {
          "name": "market",
          "type": "address",
          "internalType": "address"
        },
        {
          "name": "creator",
          "type": "address",
          "internalType": "address"
        }
      ],
      "outputs": [],
      "stateMutability": "nonpayable"
    },
    {
      "type": "function",
      "name": "updateFeeSharesOf",
      "inputs": [
        {
          "name": "market",
          "type": "address",
          "internalType": "address"
        },
        {
          "name": "creatorShare",
          "type": "uint16",
          "internalType": "uint16"
        },
        {
          "name": "stakingShare",
          "type": "uint16",
          "internalType": "uint16"
        }
      ],
      "outputs": [],
      "stateMutability": "nonpayable"
    },
    {
      "type": "function",
      "name": "updateProtocolFeeRecipient",
      "inputs": [
        {
          "name": "protocolFeeRecipient",
          "type": "address",
          "internalType": "address"
        }
      ],
      "outputs": [],
      "stateMutability": "nonpayable"
    },
    {
      "type": "function",
      "name": "updateProtocolShare",
      "inputs": [
        {
          "name": "protocolShare",
          "type": "uint16",
          "internalType": "uint16"
        }
      ],
      "outputs": [],
      "stateMutability": "nonpayable"
    },
    {
      "type": "function",
      "name": "updateReferrerShare",
      "inputs": [
        {
          "name": "referrerShare",
          "type": "uint16",
          "internalType": "uint16"
        }
      ],
      "outputs": [],
      "stateMutability": "nonpayable"
    },
    {
      "type": "function",
      "name": "updateTokenImplementation",
      "inputs": [
        {
          "name": "tokenType",
          "type": "uint96",
          "internalType": "uint96"
        },
        {
          "name": "implementation",
          "type": "address",
          "internalType": "address"
        }
      ],
      "outputs": [],
      "stateMutability": "nonpayable"
    },
    {
      "type": "event",
      "name": "FeesReceived",
      "inputs": [
        {
          "name": "token",
          "type": "address",
          "indexed": true,
          "internalType": "address"
        },
        {
          "name": "market",
          "type": "address",
          "indexed": true,
          "internalType": "address"
        },
        {
          "name": "referrer",
          "type": "address",
          "indexed": true,
          "internalType": "address"
        },
        {
          "name": "protocolFees",
          "type": "uint256",
          "indexed": false,
          "internalType": "uint256"
        },
        {
          "name": "referrerFees",
          "type": "uint256",
          "indexed": false,
          "internalType": "uint256"
        }
      ],
      "anonymous": false
    },
    {
      "type": "event",
      "name": "Initialized",
      "inputs": [
        {
          "name": "version",
          "type": "uint64",
          "indexed": false,
          "internalType": "uint64"
        }
      ],
      "anonymous": false
    },
    {
      "type": "event",
      "name": "MarketCreated",
      "inputs": [
        {
          "name": "quoteToken",
          "type": "address",
          "indexed": true,
          "internalType": "address"
        },
        {
          "name": "creator",
          "type": "address",
          "indexed": true,
          "internalType": "address"
        },
        {
          "name": "baseToken",
          "type": "address",
          "indexed": true,
          "internalType": "address"
        },
        {
          "name": "market",
          "type": "address",
          "indexed": false,
          "internalType": "address"
        },
        {
          "name": "totalSupply",
          "type": "uint256",
          "indexed": false,
          "internalType": "uint256"
        },
        {
          "name": "name",
          "type": "string",
          "indexed": false,
          "internalType": "string"
        },
        {
          "name": "symbol",
          "type": "string",
          "indexed": false,
          "internalType": "string"
        },
        {
          "name": "decimals",
          "type": "uint8",
          "indexed": false,
          "internalType": "uint8"
        },
        {
          "name": "packedPrices",
          "type": "uint256[]",
          "indexed": false,
          "internalType": "uint256[]"
        }
      ],
      "anonymous": false
    },
    {
      "type": "event",
      "name": "MarketCreatorUpdated",
      "inputs": [
        {
          "name": "market",
          "type": "address",
          "indexed": true,
          "internalType": "address"
        },
        {
          "name": "creator",
          "type": "address",
          "indexed": true,
          "internalType": "address"
        }
      ],
      "anonymous": false
    },
    {
      "type": "event",
      "name": "MarketFeeSharesUpdated",
      "inputs": [
        {
          "name": "market",
          "type": "address",
          "indexed": true,
          "internalType": "address"
        },
        {
          "name": "protocolShare",
          "type": "uint256",
          "indexed": false,
          "internalType": "uint256"
        },
        {
          "name": "creatorShare",
          "type": "uint256",
          "indexed": false,
          "internalType": "uint256"
        },
        {
          "name": "stakingShare",
          "type": "uint256",
          "indexed": false,
          "internalType": "uint256"
        }
      ],
      "anonymous": false
    },
    {
      "type": "event",
      "name": "OwnershipTransferStarted",
      "inputs": [
        {
          "name": "previousOwner",
          "type": "address",
          "indexed": true,
          "internalType": "address"
        },
        {
          "name": "newOwner",
          "type": "address",
          "indexed": true,
          "internalType": "address"
        }
      ],
      "anonymous": false
    },
    {
      "type": "event",
      "name": "OwnershipTransferred",
      "inputs": [
        {
          "name": "previousOwner",
          "type": "address",
          "indexed": true,
          "internalType": "address"
        },
        {
          "name": "newOwner",
          "type": "address",
          "indexed": true,
          "internalType": "address"
        }
      ],
      "anonymous": false
    },
    {
      "type": "event",
      "name": "ProtocolFeeRecipientUpdated",
      "inputs": [
        {
          "name": "recipient",
          "type": "address",
          "indexed": false,
          "internalType": "address"
        }
      ],
      "anonymous": false
    },
    {
      "type": "event",
      "name": "ProtocolFeesClaimed",
      "inputs": [
        {
          "name": "token",
          "type": "address",
          "indexed": true,
          "internalType": "address"
        },
        {
          "name": "referrer",
          "type": "address",
          "indexed": true,
          "internalType": "address"
        },
        {
          "name": "claimedFees",
          "type": "uint256",
          "indexed": false,
          "internalType": "uint256"
        }
      ],
      "anonymous": false
    },
    {
      "type": "event",
      "name": "ProtocolSharesUpdated",
      "inputs": [
        {
          "name": "protocolShare",
          "type": "uint256",
          "indexed": false,
          "internalType": "uint256"
        }
      ],
      "anonymous": false
    },
    {
      "type": "event",
      "name": "QuoteTokenAdded",
      "inputs": [
        {
          "name": "quoteToken",
          "type": "address",
          "indexed": false,
          "internalType": "address"
        }
      ],
      "anonymous": false
    },
    {
      "type": "event",
      "name": "QuoteTokenRemoved",
      "inputs": [
        {
          "name": "quoteToken",
          "type": "address",
          "indexed": false,
          "internalType": "address"
        }
      ],
      "anonymous": false
    },
    {
      "type": "event",
      "name": "ReferrerFeesClaimed",
      "inputs": [
        {
          "name": "token",
          "type": "address",
          "indexed": true,
          "internalType": "address"
        },
        {
          "name": "referrer",
          "type": "address",
          "indexed": true,
          "internalType": "address"
        },
        {
          "name": "claimedFees",
          "type": "uint256",
          "indexed": false,
          "internalType": "uint256"
        }
      ],
      "anonymous": false
    },
    {
      "type": "event",
      "name": "ReferrerShareUpdated",
      "inputs": [
        {
          "name": "referrerShare",
          "type": "uint256",
          "indexed": false,
          "internalType": "uint256"
        }
      ],
      "anonymous": false
    },
    {
      "type": "event",
      "name": "TokenImplementationUpdated",
      "inputs": [
        {
          "name": "tokenType",
          "type": "uint96",
          "indexed": false,
          "internalType": "uint96"
        },
        {
          "name": "implementation",
          "type": "address",
          "indexed": false,
          "internalType": "address"
        }
      ],
      "anonymous": false
    },
    {
      "type": "error",
      "name": "AddressEmptyCode",
      "inputs": [
        {
          "name": "target",
          "type": "address",
          "internalType": "address"
        }
      ]
    },
    {
      "type": "error",
      "name": "AddressInsufficientBalance",
      "inputs": [
        {
          "name": "account",
          "type": "address",
          "internalType": "address"
        }
      ]
    },
    {
      "type": "error",
      "name": "ERC1167FailedCreateClone",
      "inputs": []
    },
    {
      "type": "error",
      "name": "FailedInnerCall",
      "inputs": []
    },
    {
      "type": "error",
      "name": "ImmutableCreate__DeploymentFailed",
      "inputs": []
    },
    {
      "type": "error",
      "name": "ImmutableCreate__MaxLengthExceeded",
      "inputs": []
    },
    {
      "type": "error",
      "name": "ImmutableHelper__BidAskMismatch",
      "inputs": [
        {
          "name": "i",
          "type": "uint256",
          "internalType": "uint256"
        },
        {
          "name": "bidPrice",
          "type": "uint256",
          "internalType": "uint256"
        },
        {
          "name": "askPrice",
          "type": "uint256",
          "internalType": "uint256"
        }
      ]
    },
    {
      "type": "error",
      "name": "ImmutableHelper__InvalidDecimals",
      "inputs": [
        {
          "name": "baseDecimals",
          "type": "uint256",
          "internalType": "uint256"
        },
        {
          "name": "quoteDecimals",
          "type": "uint256",
          "internalType": "uint256"
        }
      ]
    },
    {
      "type": "error",
      "name": "ImmutableHelper__InvalidLength",
      "inputs": [
        {
          "name": "lengthBid",
          "type": "uint256",
          "internalType": "uint256"
        },
        {
          "name": "lengthAsk",
          "type": "uint256",
          "internalType": "uint256"
        }
      ]
    },
    {
      "type": "error",
      "name": "ImmutableHelper__InvalidTotalSupply",
      "inputs": [
        {
          "name": "totalSupply",
          "type": "uint256",
          "internalType": "uint256"
        },
        {
          "name": "nbIntervals",
          "type": "uint256",
          "internalType": "uint256"
        }
      ]
    },
    {
      "type": "error",
      "name": "ImmutableHelper__InvalidWidthScaled",
      "inputs": [
        {
          "name": "widthScaled",
          "type": "uint256",
          "internalType": "uint256"
        }
      ]
    },
    {
      "type": "error",
      "name": "ImmutableHelper__LengthOutOfBounds",
      "inputs": [
        {
          "name": "min",
          "type": "uint256",
          "internalType": "uint256"
        },
        {
          "name": "length",
          "type": "uint256",
          "internalType": "uint256"
        },
        {
          "name": "max",
          "type": "uint256",
          "internalType": "uint256"
        }
      ]
    },
    {
      "type": "error",
      "name": "ImmutableHelper__OnlyIncreasingPrices",
      "inputs": [
        {
          "name": "i",
          "type": "uint256",
          "internalType": "uint256"
        }
      ]
    },
    {
      "type": "error",
      "name": "ImmutableHelper__PriceTooHigh",
      "inputs": [
        {
          "name": "askPrice",
          "type": "uint256",
          "internalType": "uint256"
        },
        {
          "name": "maxPrice",
          "type": "uint256",
          "internalType": "uint256"
        }
      ]
    },
    {
      "type": "error",
      "name": "InvalidInitialization",
      "inputs": []
    },
    {
      "type": "error",
      "name": "NotInitializing",
      "inputs": []
    },
    {
      "type": "error",
      "name": "OwnableInvalidOwner",
      "inputs": [
        {
          "name": "owner",
          "type": "address",
          "internalType": "address"
        }
      ]
    },
    {
      "type": "error",
      "name": "OwnableUnauthorizedAccount",
      "inputs": [
        {
          "name": "account",
          "type": "address",
          "internalType": "address"
        }
      ]
    },
    {
      "type": "error",
      "name": "SafeERC20FailedOperation",
      "inputs": [
        {
          "name": "token",
          "type": "address",
          "internalType": "address"
        }
      ]
    },
    {
      "type": "error",
      "name": "TMFactory__AddressZero",
      "inputs": []
    },
    {
      "type": "error",
      "name": "TMFactory__InvalidBalance",
      "inputs": []
    },
    {
      "type": "error",
      "name": "TMFactory__InvalidCaller",
      "inputs": []
    },
    {
      "type": "error",
      "name": "TMFactory__InvalidFeeShares",
      "inputs": []
    },
    {
      "type": "error",
      "name": "TMFactory__InvalidProtocolShare",
      "inputs": []
    },
    {
      "type": "error",
      "name": "TMFactory__InvalidQuoteToken",
      "inputs": []
    },
    {
      "type": "error",
      "name": "TMFactory__InvalidRecipient",
      "inputs": []
    },
    {
      "type": "error",
      "name": "TMFactory__InvalidReferrer",
      "inputs": []
    },
    {
      "type": "error",
      "name": "TMFactory__InvalidReferrerShare",
      "inputs": []
    },
    {
      "type": "error",
      "name": "TMFactory__InvalidTokenType",
      "inputs": []
    },
    {
      "type": "error",
      "name": "TMFactory__MaxQuoteTokensExceeded",
      "inputs": []
    },
    {
      "type": "error",
      "name": "TMFactory__QuoteTokenAlreadyAdded",
      "inputs": []
    },
    {
      "type": "error",
      "name": "TMFactory__QuoteTokenNotFound",
      "inputs": []
    },
    {
      "type": "error",
      "name": "TMFactory__SameTokens",
      "inputs": []
    },
    {
      "type": "error",
      "name": "TMFactory__ZeroFeeRecipients",
      "inputs": []
    }
  ],
  "bytecode": {
    "object": "0x60a06040523480156200001157600080fd5b50604051620054db380380620054db833981016040819052620000349162000046565b6001600160a01b031660805262000078565b6000602082840312156200005957600080fd5b81516001600160a01b03811681146200007157600080fd5b9392505050565b60805161542b620000b060003960008181610621015281816108cc0152818161094d01528181610a970152610db4015261542b6000f3fe60806040523480156200001157600080fd5b5060043610620002aa5760003560e01c8063714af34b116200017c57806393272baf11620000e9578063d746414e1162000097578063e30c3978116200007a578063e30c397814620006df578063f27dd8ab14620006e9578063f2fde38b146200070057600080fd5b8063d746414e1462000688578063dd985763146200069f57600080fd5b80639b74c6e811620000cc5780639b74c6e81462000643578063c8c2c29a146200065a578063c9f6b527146200067157600080fd5b806393272baf14620005ec57806397610f30146200061b57600080fd5b806379ba509711620001475780638da5cb5b116200012a5780638da5cb5b14620005c25780638e55d2d114620005cc57806392ef292c14620005e357600080fd5b806379ba509714620005805780637b6fd824146200058a57600080fd5b8063714af34b1462000519578063715018a6146200055057806372c8fc0e146200055a57806374bec202146200056c57600080fd5b80633d3f0926116200021b5780636386728b11620001e65780636ca51cd011620001c95780636ca51cd014620004d25780636d86b47814620004e9578063704aea48146200050257600080fd5b80636386728b14620004a457806369ce6d4714620004bb57600080fd5b80633d3f092614620003eb5780633de8682114620004025780634b4d77ea146200046557806357581511146200048d57600080fd5b80631df47f80116200027957806324c6d9bc116200025c57806324c6d9bc146200038357806329aea3d714620003bd5780632b7d6d0f14620003d457600080fd5b80631df47f8014620003585780631fe07c3b146200036f57600080fd5b80630eb017c714620002af578063106184fe14620002d957806312028f52146200032857806315a0ea6a1462000341575b600080fd5b620002c6620002c036600462002ab3565b62000717565b6040519081526020015b60405180910390f35b6200030f620002ea36600462002ab3565b6001600160a01b03908116600090815260016020526040902054600160301b90041690565b6040516001600160a01b039091168152602001620002d0565b6200033f6200033936600462002ae4565b62000740565b005b620002c66200035236600462002ab3565b62000890565b6200033f6200036936600462002ab3565b620009cb565b600054600160b01b900461ffff16620002c6565b6200030f6200039436600462002b5e565b6bffffffffffffffffffffffff166000908152600560205260409020546001600160a01b031690565b6200033f620003ce36600462002b7c565b620009e3565b6200033f620003e536600462002bc6565b62000b98565b6200033f620003fc36600462002bfe565b62000c47565b620004496200041336600462002ab3565b6001600160a01b031660009081526001602052604090205461ffff80821692620100008304821692640100000000900490911690565b60408051938452602084019290925290820152606001620002d0565b6200047c6200047636600462002c1d565b62000d39565b6040519015158152602001620002d0565b6200033f6200049e36600462002ab3565b62000ef2565b6200033f620004b536600462002c5e565b62000f95565b620002c6620004cc36600462002ab3565b62000faa565b6200030f620004e336600462002ab3565b620010d5565b620004f3620010ff565b604051620002d0919062002c7c565b6200033f6200051336600462002c5e565b62001112565b620005306200052a36600462002bfe565b62001127565b6040805192151583526001600160a01b03909116602083015201620002d0565b6200033f6200115e565b6000546001600160a01b03166200030f565b600054600160a01b900461ffff16620002c6565b6200033f62001176565b620005a16200059b36600462002ccb565b620011c5565b604080516001600160a01b03938416815292909116602083015201620002d0565b6200030f6200127b565b6200030f620005dd36600462002d0a565b620012b0565b600454620002c6565b620002c6620005fd36600462002ab3565b6001600160a01b031660009081526002602052604090205460a01c90565b6200030f7f000000000000000000000000000000000000000000000000000000000000000081565b6200030f6200065436600462002d37565b620012d4565b6200047c6200066b36600462002ab3565b62001307565b6200033f6200068236600462002ab3565b62001316565b620002c66200069936600462002ab3565b62001385565b620002c6620006b036600462002bfe565b6001600160a01b0391821660009081526009602090815260408083209390941682526001909201909152205490565b6200030f62001429565b620002c6620006fa36600462002ab3565b62001453565b6200033f6200071136600462002ab3565b620014f7565b6001600160a01b03811660009081526008602052604081206200073a9062001580565b92915050565b7ff0c57e16840df040f15088dc2f81fe391c3923bec73e23a9662efc9c229c6a00805468010000000000000000810460ff16159067ffffffffffffffff166000811580156200078c5750825b905060008267ffffffffffffffff166001148015620007aa5750303b155b905081158015620007b9575080155b15620007d85760405163f92ee8a960e01b815260040160405180910390fd5b845467ffffffffffffffff1916600117855583156200080d57845468ff00000000000000001916680100000000000000001785555b62000818866200158b565b6200082389620015a0565b6200082e8862001633565b6200083987620016c6565b83156200088557845468ff000000000000000019168555604051600181527fc7f505b2f371ae2175ee4913f4499e1f2633a7b5936321eed1cdaeb6115181d29060200160405180910390a15b505050505050505050565b6001600160a01b038082166000908152600160205260408120549091600160301b90910416338114801590620008ef5750336001600160a01b037f00000000000000000000000000000000000000000000000000000000000000001614155b156200090e57604051630a650d3360e01b815260040160405180910390fd5b6001600160a01b038381166000818152600160205260409081902054905163af688fed60e01b8152336004820152600160301b909104831660248201527f000000000000000000000000000000000000000000000000000000000000000090921660448301529063af688fed906064016020604051808303816000875af11580156200099e573d6000803e3d6000fd5b505050506040513d601f19601f82011682018060405250810190620009c4919062002d51565b9392505050565b620009d56200173d565b620009e081620016c6565b50565b6001600160a01b0380841660009081526001602052604090208054909133600160301b909204161462000a2957604051630a650d3360e01b815260040160405180910390fd5b805461ffff90811690612710908481169062000a489087168462002d81565b62000a54919062002d81565b1462000a7357604051638423ec0360e01b815260040160405180910390fd5b60405163af688fed60e01b8152336004820181905260248201526001600160a01b037f00000000000000000000000000000000000000000000000000000000000000008116604483015286169063af688fed906064016020604051808303816000875af115801562000ae9573d6000803e3d6000fd5b505050506040513d601f19601f8201168201806040525081019062000b0f919062002d51565b50815465ffffffff000019166201000061ffff86811691820265ffff000000001916929092176401000000009286169283021784556040805184815260208101929092528101919091526001600160a01b038616907f506fba3302cc62c9e3ae2e659cb2ec64626f1aa486de408c30f7dde668cf5d9e9060600160405180910390a25050505050565b62000ba26200173d565b816bffffffffffffffffffffffff1660000362000bd257604051631623a17160e31b815260040160405180910390fd5b6bffffffffffffffffffffffff821660008181526005602090815260409182902080546001600160a01b0319166001600160a01b0386169081179091558251938452908301527f735b0c331c0228ea6ec5bde61f4d98e5042f428783d7a32ec74da4ca63ef730f910160405180910390a15050565b6001600160a01b0380831660009081526001602052604090208054909133600160301b909204161462000c8d57604051630a650d3360e01b815260040160405180910390fd5b33600090815260086020526040902062000ca8908462001773565b506001600160a01b038216600090815260086020526040902062000ccd90846200178a565b5080546001600160a01b03808416600160301b810279ffffffffffffffffffffffffffffffffffffffff00000000000019909316929092178355604051908516907f34e1cf5f4459a8d07656ea287933cb70ed82aec28fcea344fc1f36bcf78d695490600090a3505050565b33600090815260016020526040812080546127109061ffff640100000000820481169162000d71916201000082048116911662002d97565b62000d7d919062002d97565b61ffff161462000da057604051630a650d3360e01b815260040160405180910390fd5b60006001600160a01b0385161562000e9b577f00000000000000000000000000000000000000000000000000000000000000006001600160a01b0316856001600160a01b03160362000e05576040516324a5a75360e11b815260040160405180910390fd5b6001600160a01b038616600090815260096020526040812090546127109062000e3a90600160b01b900461ffff168762002db5565b62000e46919062002de5565b915062000e54828662002e08565b9450811562000e99578181600001600082825462000e73919062002d81565b90915550506001600160a01b038616600090815260018201602052604090208054830190555b505b60408051858152602081018390526001600160a01b03808816923392918a16917fe302f3f9284adbba427e3aaafbae75197a38d5a8d2268c1f0f35cda03c9ca14f910160405180910390a450600195945050505050565b62000efc6200173d565b62000f096006826200178a565b62000f27576040516305d9ee6360e31b815260040160405180910390fd5b604062000f35600662001580565b111562000f5557604051633a59c3ed60e01b815260040160405180910390fd5b6040516001600160a01b03821681527fd088fc9e5d97f0602fcd1a894990d94fa7bc6b0b693233005c19c2ac6afc0167906020015b60405180910390a150565b62000f9f6200173d565b620009e08162001633565b600080546001600160a01b031633811462000fd857604051630a650d3360e01b815260040160405180910390fd5b6001600160a01b038316600081815260096020526040808220805491516370a0823160e01b81523060048201529093919291906370a0823190602401602060405180830381865afa15801562001032573d6000803e3d6000fd5b505050506040513d601f19601f8201168201806040525081019062001058919062002d51565b905081811115620010cc578181039450836001600160a01b0316866001600160a01b03167f4f8a50ec1fe3d316970fdadd1f94e0b822f92d31e2bac3c9dc2c6c287de0710787604051620010ae91815260200190565b60405180910390a3620010cc6001600160a01b0387168587620017a1565b50505050919050565b6001600160a01b038116600090815260026020526040812054819060a081901c905b949350505050565b60606200110d60066200180f565b905090565b6200111c6200173d565b620009e081620015a0565b6001600160a01b03828116600090815260036020908152604080832093851683529290522054600160a082901c14905b9250929050565b620011686200173d565b6200117460006200181e565b565b33806200118262001429565b6001600160a01b031614620011ba5760405163118cdaa760e01b81526001600160a01b03821660048201526024015b60405180910390fd5b620009e0816200181e565b600080620011d3836200185c565b9150600062001264620011ea60e086018662002e1e565b808060200260200160405190810160405280939291908181526020018383602002808284376000920191909152506200122c9250505061010087018762002e1e565b808060200260200160405190810160405280939291908181526020018383602002808284376000920191909152506200196192505050565b90506200127384828562001b4a565b915050915091565b6000807f9016d09d72d40fdae2fd8ceac6b6234c7706214fd39c1cd1e609a0528c1993005b546001600160a01b031692915050565b6001600160a01b0382166000908152600860205260408120620009c49083620021cc565b600060048281548110620012ec57620012ec62002e6b565b6000918252602090912001546001600160a01b031692915050565b60006200073a600683620021da565b620013206200173d565b6200132d60068262001773565b6200134b5760405163a8bdeb8760e01b815260040160405180910390fd5b6040516001600160a01b03821681527f039355463e0ce8c4818b0228efbf3dce8cdf8fb0f2d2737b55ceb6b04c48bcf09060200162000f8a565b6001600160a01b0381166000908152600960209081526040808320338452600181019092528220805490839055815490928391839190620013c890849062002e08565b909155505060405182815233906001600160a01b038516907f4107b4f82d7a31326f55cd7c19883a8014ecc95ff43f26002e823ffd95568d229060200160405180910390a3620014236001600160a01b0384163384620017a1565b50919050565b6000807f237e158222e3e6968b72b9db0d8043aacf074ad9f650f0d1606b4d82ee432c00620012a0565b6040516370a0823160e01b815230600482015260009081906001600160a01b038416906370a0823190602401602060405180830381865afa1580156200149d573d6000803e3d6000fd5b505050506040513d601f19601f82011682018060405250810190620014c3919062002d51565b6001600160a01b038416600090815260096020526040902054909150808211620014ef576000620010f7565b900392915050565b620015016200173d565b7f237e158222e3e6968b72b9db0d8043aacf074ad9f650f0d1606b4d82ee432c0080546001600160a01b0319166001600160a01b0383169081178255620015476200127b565b6001600160a01b03167f38d16b8cac22d99fc7c124b9cd0de2d3fa1faef420bfe791d8c362d765e2270060405160405180910390a35050565b60006200073a825490565b62001595620021fd565b620009e0816200224c565b61271061ffff82161115620015c857604051632fd464c760e01b815260040160405180910390fd5b600080547fffffffffffffffffffff0000ffffffffffffffffffffffffffffffffffffffff16600160a01b61ffff8416908102919091179091556040519081527f28cd65bebadddc5945cc4274b98d0556ae5cb9ab211ac8d7ee1016bd1f1dfc7d9060200162000f8a565b61271061ffff821611156200165b576040516389f50bf160e01b815260040160405180910390fd5b600080547fffffffffffffffff0000ffffffffffffffffffffffffffffffffffffffffffff16600160b01b61ffff8416908102919091179091556040519081527fc1f5646d4637c6c50a512875be4c18f3fa8f2fb3434acf968a433b7f71185df89060200162000f8a565b6001600160a01b038116620016ee576040516372a4026760e01b815260040160405180910390fd5b600080546001600160a01b0319166001600160a01b0383169081179091556040519081527fc1b5345cce283376356748dc57f2dfa7120431d016fc7ca9ba641bc65f91411d9060200162000f8a565b33620017486200127b565b6001600160a01b031614620011745760405163118cdaa760e01b8152336004820152602401620011b1565b6000620009c4836001600160a01b03841662002282565b6000620009c4836001600160a01b0384166200238d565b604080516001600160a01b038416602482015260448082018490528251808303909101815260649091019091526020810180517bffffffffffffffffffffffffffffffffffffffffffffffffffffffff1663a9059cbb60e01b1790526200180a908490620023df565b505050565b60606000620009c48362002449565b7f237e158222e3e6968b72b9db0d8043aacf074ad9f650f0d1606b4d82ee432c0080546001600160a01b03191681556200185882620024a7565b5050565b60008060058162001871602086018662002b5e565b6bffffffffffffffffffffffff1681526020810191909152604001600020546001600160a01b0316905080620018ba57604051631623a17160e31b815260040160405180910390fd5b620018c58162002518565b91506001600160a01b03821663e649e2fb620018e5602086018662002e81565b620018f4604088018862002e81565b620019046101208a018a62002e81565b6040518763ffffffff1660e01b8152600401620019279695949392919062002ef4565b600060405180830381600087803b1580156200194257600080fd5b505af115801562001957573d6000803e3d6000fd5b5050505050919050565b815181516060919081141580620019785750600281105b80620019845750606581115b15620019b157825160405163b4a1878d60e01b8152620011b1918391600401918252602082015260400190565b60008167ffffffffffffffff811115620019cf57620019cf62002f43565b604051908082528060200260200182016040528015620019f9578160200160208202803683370190505b50905060008060005b8481101562001af457600087828151811062001a225762001a2262002e6b565b60200260200101519050600089838151811062001a435762001a4362002e6b565b602002602001015190508181111562001a815760405163fb009b6560e01b8152600481018490526024810182905260448101839052606401620011b1565b821580159062001a9c5750848211158062001a9c5750838111155b1562001abf57604051631dcd8d9760e11b815260048101849052602401620011b1565b80608083901b1786848151811062001adb5762001adb62002e6b565b6020908102919091010152909350915060010162001a02565b506ec097ce7bc90715b34b9f100000000082111562001b3f57604051630285cf7360e21b8152600481018390526ec097ce7bc90715b34b9f10000000006024820152604401620011b1565b509095945050505050565b600062001b5e608085016060860162002ab3565b6001600160a01b0316826001600160a01b03160362001b905760405163f4c6e82360e01b815260040160405180910390fd5b62001baf62001ba6608086016060870162002ab3565b600690620021da565b62001bcd57604051631eec4a5560e21b815260040160405180910390fd5b600062001bf3308462001be76080890160608a0162002ab3565b8860800135886200258b565b905062001c256040518060200162001c0b9062002a8d565b601f1982820381018352601f909101166040528262002711565b91506001600160a01b0383163362001c44608088016060890162002ab3565b6001600160a01b03167f7ee9fce77e7f00a078e57aa58ede501b9053c2fa51ef8e74a14e0af35c91dc688560808a013562001c8360208c018c62002e81565b62001c9260408e018e62002e81565b8c6001600160a01b031663313ce5676040518163ffffffff1660e01b8152600401602060405180830381865afa15801562001cd1573d6000803e3d6000fd5b505050506040513d601f19601f8201168201806040525081019062001cf7919062002f59565b8e60405162001d0e98979695949392919062002f7e565b60405180910390a4600080546004805460018101825592527f8a35acfbc15ff81a39ae7d344fd709f28e8600b4aa8c65c6b64bfe7fe36bd19b90910180546001600160a01b0319166001600160a01b038516908117909155600160a01b9182900461ffff1691176001600160a01b03851660009081526003602052604081209062001da060808a0160608b0162002ab3565b6001600160a01b03908116825260208201929092526040016000209190915583166003600062001dd760808a0160608b0162002ab3565b6001600160a01b039081168252602080830193909352604091820160009081209189168152908352209190915562001e359062001e179088018862002b5e565b846001600160a01b031660a09190911b6001600160a01b0319161790565b6001600160a01b03851660009081526002602052604090205561271062001e6360e0880160c0890162002c5e565b61ffff1662001e7960c0890160a08a0162002c5e565b61ffff168361ffff1662001e8e919062002d81565b62001e9a919062002d81565b1462001eb957604051638423ec0360e01b815260040160405180910390fd5b604080516080810190915261ffff821681526020810162001ee160c0890160a08a0162002c5e565b61ffff16815260200162001efc60e0890160c08a0162002c5e565b61ffff90811682523360209283018190526001600160a01b03878116600090815260018552604080822087518154898901518a8501516060909b0151909616600160301b0279ffffffffffffffffffffffffffffffffffffffff000000000000199a8916640100000000029a909a167fffffffffffff00000000000000000000000000000000000000000000ffffffff968916620100000263ffffffff19909216929098169190911717939093169490941795909517905583526008909152902062001fc990846200178a565b506001600160a01b0383167f506fba3302cc62c9e3ae2e659cb2ec64626f1aa486de408c30f7dde668cf5d9e826200200860c08a0160a08b0162002c5e565b6200201a60e08b0160c08c0162002c5e565b6040805161ffff9485168152928416602084015292168183015290519081900360600190a260405133906001600160a01b038516907f34e1cf5f4459a8d07656ea287933cb70ed82aec28fcea344fc1f36bcf78d695490600090a3826001600160a01b0316638129fc1c6040518163ffffffff1660e01b8152600401600060405180830381600087803b158015620020b157600080fd5b505af1158015620020c6573d6000803e3d6000fd5b505060405163a4f0ecd360e01b81526001600160a01b03868116600483015260808a013560248301528716925063a4f0ecd39150604401600060405180830381600087803b1580156200211857600080fd5b505af11580156200212d573d6000803e3d6000fd5b50506040516370a0823160e01b81526001600160a01b03868116600483015260808a01359350871691506370a0823190602401602060405180830381865afa1580156200217e573d6000803e3d6000fd5b505050506040513d601f19601f82011682018060405250810190620021a4919062002d51565b14620021c35760405163101b713b60e11b815260040160405180910390fd5b50509392505050565b6000620009c48383620027e1565b6001600160a01b03811660009081526001830160205260408120541515620009c4565b7ff0c57e16840df040f15088dc2f81fe391c3923bec73e23a9662efc9c229c6a005468010000000000000000900460ff166200117457604051631afcd79f60e31b815260040160405180910390fd5b62002256620021fd565b6001600160a01b038116620011ba57604051631e4fbdf760e01b815260006004820152602401620011b1565b600081815260018301602052604081205480156200237b576000620022a960018362002e08565b8554909150600090620022bf9060019062002e08565b90508082146200232b576000866000018281548110620022e357620022e362002e6b565b906000526020600020015490508087600001848154811062002309576200230962002e6b565b6000918252602080832090910192909255918252600188019052604090208390555b85548690806200233f576200233f62003012565b6001900381819060005260206000200160009055905585600101600086815260200190815260200160002060009055600193505050506200073a565b60009150506200073a565b5092915050565b6000818152600183016020526040812054620023d6575081546001818101845560008481526020808220909301849055845484825282860190935260409020919091556200073a565b5060006200073a565b6000620023f66001600160a01b038416836200280e565b905080516000141580156200241e5750808060200190518101906200241c919062003028565b155b156200180a57604051635274afe760e01b81526001600160a01b0384166004820152602401620011b1565b6060816000018054806020026020016040519081016040528092919081815260200182805480156200249b57602002820191906000526020600020905b81548152602001906001019080831162002486575b50505050509050919050565b7f9016d09d72d40fdae2fd8ceac6b6234c7706214fd39c1cd1e609a0528c19930080546001600160a01b031981166001600160a01b03848116918217845560405192169182907f8be0079c531659141344cd1fd0a4f28419497f9722a3daafe3b4186f6b6457e090600090a3505050565b6000763d602d80600a3d3981f3363d3d373d3d3d363d730000008260601b60e81c176000526e5af43d82803e903d91602b57fd5bf38260781b17602052603760096000f090506001600160a01b03811662002586576040516330be1a3d60e21b815260040160405180910390fd5b919050565b80516060906002811080620025a05750606581115b15620025d157604051631ae3ca9760e21b8152600260048201526024810182905260656044820152606401620011b1565b6000198101600080620025e589896200281e565b9150915081838881620025fc57620025fc62002dcf565b0410806200261957506fffffffffffffffffffffffffffffffff87115b80620026395750868384898162002634576200263462002dcf565b040214155b15620026635760405163fbea46e360e01b81526004810188905260248101849052604401620011b1565b60008284898162002678576200267862002dcf565b04670de0b6b3a7640000028162002693576200269362002dcf565b0490506fffffffffffffffffffffffffffffffff811115620026cc57604051633edf4ab360e01b815260048101829052602401620011b1565b60008b8b8b86868d878c8f604051602001620026f19998979695949392919062003081565b60408051808303601f190181529190529c9b505050505050505050505050565b815181516000919061fffd9062002729908362002d81565b1115620027495760405163793862e560e11b815260040160405180910390fd5b600084846040516020016200276092919062003186565b60405160208183030381529060405290506000815190506020818301018051600d83016002840160401b6a610000600081600b8239f317808652508560f01b835280601586016000f0919092529450506001600160a01b038416620027d857604051632bc3ed3160e21b815260040160405180910390fd5b50505092915050565b6000826000018281548110620027fb57620027fb62002e6b565b9060005260206000200154905092915050565b6060620009c4838360006200295a565b6000806000846001600160a01b031663313ce5676040518163ffffffff1660e01b8152600401602060405180830381865afa15801562002862573d6000803e3d6000fd5b505050506040513d601f19601f8201168201806040525081019062002888919062002f59565b60ff1690506000846001600160a01b031663313ce5676040518163ffffffff1660e01b8152600401602060405180830381865afa158015620028ce573d6000803e3d6000fd5b505050506040513d601f19601f82011682018060405250810190620028f4919062002f59565b60ff1690506012821180620029095750601281115b156200293357604051632a210f5960e11b81526004810183905260248101829052604401620011b1565b6200294082600a6200329c565b93506200294f81600a6200329c565b925050509250929050565b606081471015620029815760405163cd78605960e01b8152306004820152602401620011b1565b600080856001600160a01b031684866040516200299f9190620032aa565b60006040518083038185875af1925050503d8060008114620029de576040519150601f19603f3d011682016040523d82523d6000602084013e620029e3565b606091505b5091509150620029f5868383620029ff565b9695505050505050565b60608262002a185762002a128262002a63565b620009c4565b815115801562002a3057506001600160a01b0384163b155b1562002a5b57604051639996b31560e01b81526001600160a01b0385166004820152602401620011b1565b5080620009c4565b80511562002a745780518082602001fd5b604051630a12f52160e11b815260040160405180910390fd5b61213d80620032b983390190565b80356001600160a01b03811681146200258657600080fd5b60006020828403121562002ac657600080fd5b620009c48262002a9b565b803561ffff811681146200258657600080fd5b6000806000806080858703121562002afb57600080fd5b62002b068562002ad1565b935062002b166020860162002ad1565b925062002b266040860162002a9b565b915062002b366060860162002a9b565b905092959194509250565b80356bffffffffffffffffffffffff811681146200258657600080fd5b60006020828403121562002b7157600080fd5b620009c48262002b41565b60008060006060848603121562002b9257600080fd5b62002b9d8462002a9b565b925062002bad6020850162002ad1565b915062002bbd6040850162002ad1565b90509250925092565b6000806040838503121562002bda57600080fd5b62002be58362002b41565b915062002bf56020840162002a9b565b90509250929050565b6000806040838503121562002c1257600080fd5b62002be58362002a9b565b60008060006060848603121562002c3357600080fd5b62002c3e8462002a9b565b925062002c4e6020850162002a9b565b9150604084013590509250925092565b60006020828403121562002c7157600080fd5b620009c48262002ad1565b6020808252825182820181905260009190848201906040850190845b8181101562002cbf5783516001600160a01b03168352928401929184019160010162002c98565b50909695505050505050565b60006020828403121562002cde57600080fd5b813567ffffffffffffffff81111562002cf657600080fd5b82016101408185031215620009c457600080fd5b6000806040838503121562002d1e57600080fd5b62002d298362002a9b565b946020939093013593505050565b60006020828403121562002d4a57600080fd5b5035919050565b60006020828403121562002d6457600080fd5b5051919050565b634e487b7160e01b600052601160045260246000fd5b808201808211156200073a576200073a62002d6b565b61ffff81811683821601908082111562002386576200238662002d6b565b80820281158282048414176200073a576200073a62002d6b565b634e487b7160e01b600052601260045260246000fd5b60008262002e0357634e487b7160e01b600052601260045260246000fd5b500490565b818103818111156200073a576200073a62002d6b565b6000808335601e1984360301811262002e3657600080fd5b83018035915067ffffffffffffffff82111562002e5257600080fd5b6020019150600581901b36038213156200115757600080fd5b634e487b7160e01b600052603260045260246000fd5b6000808335601e1984360301811262002e9957600080fd5b83018035915067ffffffffffffffff82111562002eb557600080fd5b6020019150368190038213156200115757600080fd5b81835281816020850137506000828201602090810191909152601f909101601f19169091010190565b60608152600062002f0a60608301888a62002ecb565b828103602084015262002f1f81878962002ecb565b9050828103604084015262002f3681858762002ecb565b9998505050505050505050565b634e487b7160e01b600052604160045260246000fd5b60006020828403121562002f6c57600080fd5b815160ff81168114620009c457600080fd5b6001600160a01b038916815260006020898184015260c0604084015262002faa60c08401898b62002ecb565b838103606085015262002fbf81888a62002ecb565b60ff8716608086015284810360a0860152855180825283870192509083019060005b8181101562002fff5783518352928401929184019160010162002fe1565b50909d9c50505050505050505050505050565b634e487b7160e01b600052603160045260246000fd5b6000602082840312156200303b57600080fd5b81518015158114620009c457600080fd5b60008151602080840160005b83811015620030765781518752958201959082019060010162003058565b509495945050505050565b6bffffffffffffffffffffffff1960608b811b821683528a811b8216601484015289901b1660288201527fffffffffffffffff00000000000000000000000000000000000000000000000060c088811b8216603c84015287901b1660448201526fffffffffffffffffffffffffffffffff19608086811b8216604c84015285901b16605c8201527fff0000000000000000000000000000000000000000000000000000000000000060f884901b16606c820152600062003145606d8301846200304c565b9b9a5050505050505050505050565b6000815160005b818110156200317757602081850181015186830152016200315b565b50600093019283525090919050565b6000620010f762003198838662003154565b8462003154565b600181815b80851115620031e0578160001904821115620031c457620031c462002d6b565b80851615620031d257918102915b93841c9390800290620031a4565b509250929050565b600082620031f9575060016200073a565b8162003208575060006200073a565b81600181146200322157600281146200322c576200324c565b60019150506200073a565b60ff84111562003240576200324062002d6b565b50506001821b6200073a565b5060208310610133831016604e8410600b841016171562003271575081810a6200073a565b6200327d83836200319f565b806000190482111562003294576200329462002d6b565b029392505050565b6000620009c48383620031e8565b6000620009c482846200315456fe608060405234801561001057600080fd5b50600436106100f55760003560e01c806388cc58e411610097578063c4e41b2211610066578063c4e41b22146101d8578063c51c2d0e146101e0578063cd56aadc146101fc578063dc35ff771461022a57600080fd5b806388cc58e4146101a257806398acd7a6146101aa578063af688fed146101b2578063c357ed4c146101c557600080fd5b80635b2d9a3c116100d35780635b2d9a3c146101525780637cf0e1f5146101655780637ea516d2146101785780638129fc1c1461019857600080fd5b80630902f1ac146100fa5780632b112e491461011c5780634a64d67d14610132575b600080fd5b61010261023d565b604080519283526020830191909152015b60405180910390f35b610124610265565b604051908152602001610113565b61013a610292565b6040516001600160a01b039091168152602001610113565b610102610160366004611d55565b61029c565b610124610173366004611d85565b61034b565b61018b610186366004611db5565b610455565b6040516101139190611dd2565b6101a06104f4565b005b61013a61057a565b61013a610584565b6101246101c0366004611e32565b61058e565b6101026101d3366004611d55565b610739565b6101246107d7565b6002546001600160801b0380821691600160801b900416610102565b61020f61020a366004611d85565b6107e1565b60408051938452602084019290925290820152606001610113565b610102610238366004611e75565b610882565b60008061025d6001546001600160801b03600160801b8204811692911690565b915091509091565b600154600090600160801b90046001600160801b0316610283610bfe565b61028d9190611f3a565b905090565b600061028d610c0c565b600080826000036102b257506000905080610344565b60008084129080826102ce576102c88688611f3a565b866102d8565b866102d887611f4d565b915091506000806102eb84848788610c18565b915091506001600160ff1b03818317111561031957604051637f5c09ad60e01b815260040160405180910390fd5b600088136103305761032a82611f4d565b8161033a565b8161033a82611f4d565b9650965050505050505b9250929050565b600080610356610bfe565b905082158185106103a8578185111561038257604051630f0f694960e41b815260040160405180910390fd5b61039f600161038f610e0d565b6103999190611f3a565b82610e1b565b9250505061044f565b6103b0610e55565b6103c2670de0b6b3a764000087611f69565b6103cc9190611f96565b945060006103d8610e63565b905060006103e68288611f96565b905060006103f48389611faa565b905060006104028386610e1b565b9050600061041a610414856001611fbe565b87610e1b565b905061043b8361042a8484611f3a565b6104349190611f69565b8688610e71565b6104459083611fbe565b9750505050505050505b92915050565b60606000610461610e0d565b905060008167ffffffffffffffff81111561047e5761047e611fd1565b6040519080825280602002602001820160405280156104a7578160200160208202803683370190505b50905060005b828110156104ec576104bf8186610e1b565b8282815181106104d1576104d1611fe7565b60209081029190910101526104e581611ffd565b90506104ad565b509392505050565b6104fc610ea2565b6001600160a01b0316336001600160a01b03161461052d57604051632f4b4f2560e01b815260040160405180910390fd5b6000541561054e5760405163133cb03d60e21b815260040160405180910390fd5b600360005561055b610bfe565b600180546001600160801b03928316600160801b029216919091179055565b600061028d610ea2565b600061028d610eae565b60008054600190811880835516156105b957604051631493badf60e01b815260040160405180910390fd5b6105c1610ea2565b6001600160a01b0316336001600160a01b0316146105f257604051632f4b4f2560e01b815260040160405180910390fd5b816001600160a01b0316846001600160a01b0316036106275750600280546001600160801b03808216909255600160801b9004165b826001600160a01b0316846001600160a01b03160361067257600254610656906001600160801b031682611fbe565b600280546fffffffffffffffffffffffffffffffff1916905590505b801561072957600180548291906000906106969084906001600160801b0316612016565b92506101000a8154816001600160801b0302191690836001600160801b0316021790555060006106c4610c0c565b90506106da6001600160a01b0382168684610eba565b846001600160a01b0316816001600160a01b03167ffe3464cd748424446c37877c28ce5b700222c5bc9f90d908afcc4e5cb22707ff8460405161071f91815260200190565b60405180910390a3505b6000805460011890559392505050565b6000808260000361074f57506000905080610344565b600080600085131561077d576107658686610f26565b909250905061077382611f4d565b93509150816107a4565b61078f8661078a87611f4d565b6110a1565b90925090508161079e82611f4d565b90945092505b6001600160ff1b0381831711156107ce57604051637f5c09ad60e01b815260040160405180910390fd5b50509250929050565b600061028d610bfe565b600080600084600003610807576040516303eb2e0760e11b815260040160405180910390fd5b600154600090600160801b90046001600160801b0316610825610bfe565b61082f9190611f3a565b9050600086138515151461084c576108478187610739565b610856565b610856818761029c565b9094509250600083131561087a576108778161087186611f4d565b8561122a565b91505b509250925092565b600080546001908118808355829116156108af57604051631493badf60e01b815260040160405180910390fd5b6001600160a01b0388166108d6576040516303174edd60e21b815260040160405180910390fd5b866000036108f7576040516303eb2e0760e11b815260040160405180910390fd5b6000806109176001546001600160801b03600160801b8204811692911690565b91509150600082610926610bfe565b6109309190611f3a565b905060008a138915151461094d57610948818b610739565b610957565b610957818b61029c565b909550935060008080808c61098d5760ff89901d808a011860ff89901d808a0118610980610eae565b610988610c0c565b6109af565b60ff88901d8089011860ff8a901d808b01186109a7610c0c565b6109af610eae565b935093509350935060008411156109de576109de8f85846001600160a01b0316610eba9092919063ffffffff16565b8a15610abf5760006109f18c60a0611fbe565b67ffffffffffffffff811115610a0957610a09611fd1565b6040519080825280601f01601f191660200182016040528015610a33576020820181803683370190505b509050600063c556a18982528a60208301528960408301526060808301528c60808301528c8e60a0840137600460008e60a00184601c016000335af19050808015610a905763c556a18960005160e01c1460043d14169150610a9a565b3d6000803e3d6000fd5b5080600003610abc5760405163eb27a8cd60e01b815260040160405180910390fd5b50505b6040516370a0823160e01b815230600482015260009081906001600160a01b038416906370a0823190602401602060405180830381865afa158015610b08573d6000803e3d6000fd5b505050506040513d601f19601f82011682018060405250810190610b2c919061203d565b90506001600160801b03811115610b565760405163f6b7803960e01b815260040160405180910390fd5b8e610b6f57610b6a8c888b8b8a8a87611250565b610b7c565b610b7c898988888561149c565b9150508f6001600160a01b0316336001600160a01b03167f86cc8bfdfdfabc765ac3e479a03d9e964b00478f3dd26615949fa6b475904b028c8c85604051610bd7939291909283526020830191909152604082015260600190565b60405180910390a3505060008054600118905550959c949b50939950505050505050505050565b600061028d604c6080611521565b600061028d6028611548565b600080610c23610bfe565b861115610c43576040516314760e3760e31b815260040160405180910390fd5b6000610c4d610e0d565b90506000610c59610e55565b90506000610c65610e63565b9050600082610c7c8b670de0b6b3a7640000611f69565b610c869190611f96565b899650905082610c9e87670de0b6b3a7640000611f69565b610ca89190611f96565b98506000610cb68383611f96565b9050610cc28383611faa565b91506000610cd0828b610e1b565b90505b60008b118015610ced575085610ce883611ffd565b925082105b15610db0576000610cfe838c610e1b565b90506000610d1e8d610d108789611f3a565b818118918111919091021890565b90506000610d878288610d32876002611f69565b610d3c9190611f69565b610d47896002611f69565b610d519086611fbe565b610d5b8888611f3a565b610d659190611f69565b610d6f9190611fbe565b610d818a671bc16d674ec80000611f69565b8f61156a565b9050610d93818b611fbe565b9950610d9f828f611f3a565b9d5060009550829350505050610cd3565b610dcc610dbd868d611f69565b670de0b6b3a76400008b610e71565b610dd69089611f3a565b610dfa610de161165e565b610deb908a611f69565b670de0b6b3a76400008c610e71565b9750975050505050505094509492505050565b600061028d606c6008611521565b6000610e4e610e2b846020611f69565b83610e3757607d610e3a565b606d5b60ff16610e479190611fbe565b6080611521565b9392505050565b600061028d603c6040611521565b600061028d605c6080611521565b600082600003610e945760405163677631cf60e11b815260040160405180910390fd5b501581830615171591040190565b600061028d6000611548565b600061028d6014611548565b604080516001600160a01b038416602482015260448082018490528251808303909101815260649091019091526020810180517bffffffffffffffffffffffffffffffffffffffffffffffffffffffff1663a9059cbb60e01b179052610f2190849061166c565b505050565b600080610f31610bfe565b841115610f51576040516314760e3760e31b815260040160405180910390fd5b6000610f5b610e0d565b90506000610f67610e55565b90506000610f7361165e565b90506000610f7f610e63565b9050600083610f968a670de0b6b3a7640000611f69565b610fa09190611f96565b9050600083610fb78a670de0b6b3a7640000611f69565b610fc19190611f96565b90506000610fcf8484611f96565b90506000610fdd8585611faa565b90506000610fec836001610e1b565b90505b60008411801561100957508861100484611ffd565b935083105b1561105957600061101b846001610e1b565b905060008061102d84848b888b6116d4565b909250905061103c828f611fbe565b9d506110488188611f3a565b965060009450829350505050610fef565b611076611066898d611f69565b670de0b6b3a76400006000610e71565b6110836110668987611f69565b61108d908e611f3a565b9a509a505050505050505050509250929050565b6000806110ac610bfe565b8411156110cc576040516314760e3760e31b815260040160405180910390fd5b60006110d6610e55565b905060006110e261165e565b905060006110ee610e63565b905060008361110589670de0b6b3a7640000611f69565b61110f9190611f96565b905060008361112689670de0b6b3a7640000611f69565b6111309190611f96565b9050600061113e8484611f96565b9050600061114c8585611faa565b90508060000361115d575083611169565b61116682611ffd565b91505b6000611176836000610e1b565b90505b6000841180156111895750600083115b156111e35760006111a661119c85612056565b9450846000610e1b565b90506000806111b883858b888b6117f0565b90925090506111c7828e611fbe565b9c506111d38188611f3a565b9650889450829350505050611179565b6112006111f0898c611f69565b670de0b6b3a76400006001610e71565b61120d6111f08987611f69565b611217908d611f3a565b9950995050505050505050509250929050565b60008061123b858560006001610c18565b915050808311156104ec579091039392505050565b60008161125d8487611fbe565b111561127c57604051634bb63a7760e11b815260040160405180910390fd5b6000611292888661128d8987611f3a565b61122a565b9050801561145b576000806000806112a8611887565b919450925090506000816112bc8486611fbe565b6112c69190611fbe565b90506000816112d58589611f69565b6112df9190611f96565b90506000826112ee858a611f69565b6112f89190611f96565b905080611305838a611f3a565b61130f9190611f3a565b60028054919850839160009061132f9084906001600160801b031661206d565b92506101000a8154816001600160801b0302191690836001600160801b0316021790555080600260108282829054906101000a90046001600160801b0316611377919061206d565b92506101000a8154816001600160801b0302191690836001600160801b0316021790555050505050505080846113ad9190611f3a565b935060006113b9610ea2565b905060006113c5610c0c565b90506113db6001600160a01b0382168385610eba565b6040516325a6bbf560e11b81526001600160a01b0382811660048301528d8116602483015260448201859052831690634b4d77ea906064016020604051808303816000875af1158015611432573d6000803e3d6000fd5b505050506040513d601f19601f82011682018060405250810190611456919061208d565b505050505b6114658588611f3a565b6001600160801b038481169116600160801b026fffffffffffffffffffffffffffffffff1916176001559050979650505050505050565b6000816114a98488611fbe565b11156114c857604051634bb63a7760e11b815260040160405180910390fd5b600180546001600160801b03808516600160801b0291161790556114ec8486611f3a565b600180546fffffffffffffffffffffffffffffffff19166001600160801b039290921691909117905550600095945050505050565b60008061152c611909565b9050602084820160003960005183610100031c91505092915050565b600080611553611909565b90506020838201600039505060005160601c919050565b60008260000361158d5760405163677631cf60e11b815260040160405180910390fd5b600019848609848602808210818303039150811560018114611644578583106115be5763115285766000526004601cfd5b8587890960008781038816978890049782850381900494831190950360019186900395909504018402929092176002600388028118808902820302808902820302808902820302808902820302808902820302808902909103028102861584151715810195509092908086101561163d5763115285766000526004601cfd5b5050611653565b84158683061517158683040193505b505050949350505050565b600061028d60446040611521565b60006116816001600160a01b03841683611920565b905080516000141580156116a65750808060200190518101906116a4919061208d565b155b15610f2157604051635274afe760e01b81526001600160a01b03841660048201526024015b60405180910390fd5b600080806116e28888611f3a565b9050600061172d86886116f68c6002611f69565b6117009190611f69565b61170a8986611f69565b6117149190611fbe565b6117268a671bc16d674ec80000611f69565b600061156a565b905060006117598861173f8b8d611fbe565b6117499190611f69565b671bc16d674ec800006001610e71565b905060006117678383611f3a565b90508087106117845793508361177d888a611f3a565b95506117e2565b86945060006117a0858d8c6117998a89611fbe565b600061192e565b90508060006117af878c611f69565b8c8f6117bb9190611f69565b6117c59190611fbe565b90506117dc6117d48284611f3a565b886000610e71565b98505050505b505050509550959350505050565b600080806117fe8888611f3a565b9050600061181286886116f68c6002611f69565b90508085106118265780925085935061187b565b849250600061183b838b8a6117998887611f3a565b905060006118498489611f69565b6118538a8d611f69565b61185d9190611fbe565b90508161187561186d8284611f3a565b866001610e71565b96505050505b50509550959350505050565b6000806000611894610ea2565b604051633de8682160e01b81523060048201526001600160a01b039190911690633de8682190602401606060405180830381865afa1580156118da573d6000803e3d6000fd5b505050506040513d601f19601f820116820180604052508101906118fe91906120aa565b925092509250909192565b600060023803602081600039505060005160f01c90565b6060610e4e838360006119a7565b6000808061195661193f8988611f69565b61195187671bc16d674ec80000611f69565b611a44565b909250905060008061197561196b898b611f69565b6119518a8c611f69565b9150915060008061198886868686611a63565b9150915061199782828a611aa4565b9c9b505050505050505050505050565b6060814710156119cc5760405163cd78605960e01b81523060048201526024016116cb565b600080856001600160a01b031684866040516119e891906120d8565b60006040518083038185875af1925050503d8060008114611a25576040519150601f19603f3d011682016040523d82523d6000602084013e611a2a565b606091505b5091509150611a3a868383611bf5565b9695505050505050565b6000806000198385098385029250828110838203039150509250929050565b8382018481108483019081019085811090821017156000819003611a9a576040516308a942bb60e11b815260040160405180910390fd5b5094509492505050565b600082600003611abf57611ab88483611c51565b9050610e4e565b6000198303611ae1576040516308a942bb60e11b815260040160405180910390fd5b600160fe1b600160801b841060800293841b600160c01b811060400290811b600160e01b811060200290811b600160f01b811060100290811b600160f81b811060080290811b600160fc1b811060040290811b9586106002029490980192909201010194909401840185811b9561010082900381901c9290951b9190911793906000611b6d8682611c51565b600181811b8280028903608081811c600081900384810690910192821b8d831c17848106939093018481049185900493859004939093010180821c9390920680821c848110941483800291831b6001600160801b038f16179190911016929092179390911b019190910392901c9190911c808002909214841517159091019150509392505050565b606082611c0a57611c0582611d29565b610e4e565b8151158015611c2157506001600160a01b0384163b155b15611c4a57604051639996b31560e01b81526001600160a01b03851660048201526024016116cb565b5080610e4e565b600082600003611c635750600061044f565b6000611cd984600160806001600160801b0383110291821c604067ffffffffffffffff82110290811c602063ffffffff82110290811c601061ffff82110290811c600860ff82110290811c6004600f82110290811c6002600382110290811c969096119490960192909201010192909201010190565b600190811c81811b9086901c01811c80860401811c80860401811c80860401811c80860401811c80860401811c80860401901c808504811190038080029094119215159290920290920192915050565b805115611d395780518082602001fd5b604051630a12f52160e11b815260040160405180910390fd5b50565b60008060408385031215611d6857600080fd5b50508035926020909101359150565b8015158114611d5257600080fd5b60008060408385031215611d9857600080fd5b823591506020830135611daa81611d77565b809150509250929050565b600060208284031215611dc757600080fd5b8135610e4e81611d77565b6020808252825182820181905260009190848201906040850190845b81811015611e0a57835183529284019291840191600101611dee565b50909695505050505050565b80356001600160a01b0381168114611e2d57600080fd5b919050565b600080600060608486031215611e4757600080fd5b611e5084611e16565b9250611e5e60208501611e16565b9150611e6c60408501611e16565b90509250925092565b60008060008060008060a08789031215611e8e57600080fd5b611e9787611e16565b9550602087013594506040870135611eae81611d77565b9350606087013567ffffffffffffffff80821115611ecb57600080fd5b818901915089601f830112611edf57600080fd5b813581811115611eee57600080fd5b8a6020828501011115611f0057600080fd5b602083019550809450505050611f1860808801611e16565b90509295509295509295565b634e487b7160e01b600052601160045260246000fd5b8181038181111561044f5761044f611f24565b6000600160ff1b8201611f6257611f62611f24565b5060000390565b808202811582820484141761044f5761044f611f24565b634e487b7160e01b600052601260045260246000fd5b600082611fa557611fa5611f80565b500490565b600082611fb957611fb9611f80565b500690565b8082018082111561044f5761044f611f24565b634e487b7160e01b600052604160045260246000fd5b634e487b7160e01b600052603260045260246000fd5b60006001820161200f5761200f611f24565b5060010190565b6001600160801b0382811682821603908082111561203657612036611f24565b5092915050565b60006020828403121561204f57600080fd5b5051919050565b60008161206557612065611f24565b506000190190565b6001600160801b0381811683821601908082111561203657612036611f24565b60006020828403121561209f57600080fd5b8151610e4e81611d77565b6000806000606084860312156120bf57600080fd5b8351925060208401519150604084015190509250925092565b6000825160005b818110156120f957602081860181015185830152016120df565b50600092019182525091905056fea264697066735822122053777c5bc040cb6fa9c333a18b8fb52c7e46cd01ef26680bf89718e9267db6f264736f6c63430008140033a26469706673582212204eb78ebf65401eb8a4467fbe6f0fb040129411e69825ea8d20dfd4993775bff264736f6c63430008140033",
    "linkReferences": {}
  },
  "methodIdentifiers": {
    "STAKING()": "97610f30",
    "acceptOwnership()": "79ba5097",
    "addQuoteToken(address)": "57581511",
    "claimFees(address)": "15a0ea6a",
    "claimProtocolFees(address)": "69ce6d47",
    "claimReferrerFees(address)": "d746414e",
    "createMarketAndToken((uint96,string,string,address,uint256,uint16,uint16,uint256[],uint256[],bytes))": "7b6fd824",
    "getCreatorMarketAt(address,uint256)": "8e55d2d1",
    "getCreatorMarketsLength(address)": "0eb017c7",
    "getCreatorOf(address)": "106184fe",
    "getDefaultProtocolShare()": "74bec202",
    "getFeeSharesOf(address)": "3de86821",
    "getMarket(address,address)": "714af34b",
    "getMarketAt(uint256)": "9b74c6e8",
    "getMarketOf(address)": "6ca51cd0",
    "getMarketsLength()": "92ef292c",
    "getProtocolFeeRecipient()": "72c8fc0e",
    "getProtocolFees(address)": "f27dd8ab",
    "getQuoteTokens()": "6d86b478",
    "getReferrerFeesOf(address,address)": "dd985763",
    "getReferrerShare()": "1fe07c3b",
    "getTokenImplementation(uint96)": "24c6d9bc",
    "getTokenType(address)": "93272baf",
    "handleProtocolFees(address,address,uint256)": "4b4d77ea",
    "initialize(uint16,uint16,address,address)": "12028f52",
    "isQuoteToken(address)": "c8c2c29a",
    "owner()": "8da5cb5b",
    "pendingOwner()": "e30c3978",
    "removeQuoteToken(address)": "c9f6b527",
    "renounceOwnership()": "715018a6",
    "transferOwnership(address)": "f2fde38b",
    "updateCreatorOf(address,address)": "3d3f0926",
    "updateFeeSharesOf(address,uint16,uint16)": "29aea3d7",
    "updateProtocolFeeRecipient(address)": "1df47f80",
    "updateProtocolShare(uint16)": "704aea48",
    "updateReferrerShare(uint16)": "6386728b",
    "updateTokenImplementation(uint96,address)": "2b7d6d0f"
  },
  "id": 50
}