{
  "abi": [
    {
      "type": "function",
      "name": "claimFees",
      "inputs": [
        {
          "name": "caller",
          "type": "address",
          "internalType": "address"
        },
        {
          "name": "creator",
          "type": "address",
          "internalType": "address"
        },
        {
          "name": "staking",
          "type": "address",
          "internalType": "address"
        }
      ],
      "outputs": [
        {
          "name": "claimedFees",
          "type": "uint256",
          "internalType": "uint256"
        }
      ],
      "stateMutability": "nonpayable"
    },
    {
      "type": "function",
      "name": "getBaseToken",
      "inputs": [],
      "outputs": [
        {
          "name": "",
          "type": "address",
          "internalType": "address"
        }
      ],
      "stateMutability": "pure"
    },
    {
      "type": "function",
      "name": "getCirculatingSupply",
      "inputs": [],
      "outputs": [
        {
          "name": "",
          "type": "uint256",
          "internalType": "uint256"
        }
      ],
      "stateMutability": "view"
    },
    {
      "type": "function",
      "name": "getDeltaAmounts",
      "inputs": [
        {
          "name": "deltaAmount",
          "type": "int256",
          "internalType": "int256"
        },
        {
          "name": "swapB2Q",
          "type": "bool",
          "internalType": "bool"
        }
      ],
      "outputs": [
        {
          "name": "deltaBaseAmount",
          "type": "int256",
          "internalType": "int256"
        },
        {
          "name": "deltaQuoteAmount",
          "type": "int256",
          "internalType": "int256"
        },
        {
          "name": "quoteFees",
          "type": "uint256",
          "internalType": "uint256"
        }
      ],
      "stateMutability": "view"
    },
    {
      "type": "function",
      "name": "getDeltaBaseAmount",
      "inputs": [
        {
          "name": "supply",
          "type": "uint256",
          "internalType": "uint256"
        },
        {
          "name": "deltaQuoteAmount",
          "type": "int256",
          "internalType": "int256"
        }
      ],
      "outputs": [
        {
          "name": "deltaBaseAmount",
          "type": "int256",
          "internalType": "int256"
        },
        {
          "name": "actualDeltaQuoteAmount",
          "type": "int256",
          "internalType": "int256"
        }
      ],
      "stateMutability": "view"
    },
    {
      "type": "function",
      "name": "getDeltaQuoteAmount",
      "inputs": [
        {
          "name": "supply",
          "type": "uint256",
          "internalType": "uint256"
        },
        {
          "name": "deltaBaseAmount",
          "type": "int256",
          "internalType": "int256"
        }
      ],
      "outputs": [
        {
          "name": "actualDeltaBaseAmount",
          "type": "int256",
          "internalType": "int256"
        },
        {
          "name": "deltaQuoteAmount",
          "type": "int256",
          "internalType": "int256"
        }
      ],
      "stateMutability": "view"
    },
    {
      "type": "function",
      "name": "getFactory",
      "inputs": [],
      "outputs": [
        {
          "name": "",
          "type": "address",
          "internalType": "address"
        }
      ],
      "stateMutability": "pure"
    },
    {
      "type": "function",
      "name": "getPendingFees",
      "inputs": [],
      "outputs": [
        {
          "name": "creatorFees",
          "type": "uint256",
          "internalType": "uint256"
        },
        {
          "name": "stakingFees",
          "type": "uint256",
          "internalType": "uint256"
        }
      ],
      "stateMutability": "view"
    },
    {
      "type": "function",
      "name": "getPriceAt",
      "inputs": [
        {
          "name": "circulatingSupply",
          "type": "uint256",
          "internalType": "uint256"
        },
        {
          "name": "swapB2Q",
          "type": "bool",
          "internalType": "bool"
        }
      ],
      "outputs": [
        {
          "name": "",
          "type": "uint256",
          "internalType": "uint256"
        }
      ],
      "stateMutability": "pure"
    },
    {
      "type": "function",
      "name": "getPricePoints",
      "inputs": [
        {
          "name": "swapB2Q",
          "type": "bool",
          "internalType": "bool"
        }
      ],
      "outputs": [
        {
          "name": "",
          "type": "uint256[]",
          "internalType": "uint256[]"
        }
      ],
      "stateMutability": "pure"
    },
    {
      "type": "function",
      "name": "getQuoteToken",
      "inputs": [],
      "outputs": [
        {
          "name": "",
          "type": "address",
          "internalType": "address"
        }
      ],
      "stateMutability": "pure"
    },
    {
      "type": "function",
      "name": "getReserves",
      "inputs": [],
      "outputs": [
        {
          "name": "baseReserve",
          "type": "uint256",
          "internalType": "uint256"
        },
        {
          "name": "quoteReserve",
          "type": "uint256",
          "internalType": "uint256"
        }
      ],
      "stateMutability": "view"
    },
    {
      "type": "function",
      "name": "getTotalSupply",
      "inputs": [],
      "outputs": [
        {
          "name": "",
          "type": "uint256",
          "internalType": "uint256"
        }
      ],
      "stateMutability": "pure"
    },
    {
      "type": "function",
      "name": "initialize",
      "inputs": [],
      "outputs": [],
      "stateMutability": "nonpayable"
    },
    {
      "type": "function",
      "name": "swap",
      "inputs": [
        {
          "name": "recipient",
          "type": "address",
          "internalType": "address"
        },
        {
          "name": "deltaAmount",
          "type": "int256",
          "internalType": "int256"
        },
        {
          "name": "swapB2Q",
          "type": "bool",
          "internalType": "bool"
        },
        {
          "name": "data",
          "type": "bytes",
          "internalType": "bytes"
        },
        {
          "name": "referrer",
          "type": "address",
          "internalType": "address"
        }
      ],
      "outputs": [
        {
          "name": "deltaBaseAmount",
          "type": "int256",
          "internalType": "int256"
        },
        {
          "name": "deltaQuoteAmount",
          "type": "int256",
          "internalType": "int256"
        }
      ],
      "stateMutability": "nonpayable"
    },
    {
      "type": "event",
      "name": "FeesClaimed",
      "inputs": [
        {
          "name": "token",
          "type": "address",
          "indexed": true,
          "internalType": "address"
        },
        {
          "name": "caller",
          "type": "address",
          "indexed": true,
          "internalType": "address"
        },
        {
          "name": "claimedFees",
          "type": "uint256",
          "indexed": false,
          "internalType": "uint256"
        }
      ],
      "anonymous": false
    },
    {
      "type": "event",
      "name": "Swap",
      "inputs": [
        {
          "name": "sender",
          "type": "address",
          "indexed": true,
          "internalType": "address"
        },
        {
          "name": "recipient",
          "type": "address",
          "indexed": true,
          "internalType": "address"
        },
        {
          "name": "deltaBaseAmount",
          "type": "int256",
          "indexed": false,
          "internalType": "int256"
        },
        {
          "name": "deltaQuoteAmount",
          "type": "int256",
          "indexed": false,
          "internalType": "int256"
        },
        {
          "name": "quoteFees",
          "type": "uint256",
          "indexed": false,
          "internalType": "uint256"
        }
      ],
      "anonymous": false
    },
    {
      "type": "error",
      "name": "AddressEmptyCode",
      "inputs": [
        {
          "name": "target",
          "type": "address",
          "internalType": "address"
        }
      ]
    },
    {
      "type": "error",
      "name": "AddressInsufficientBalance",
      "inputs": [
        {
          "name": "account",
          "type": "address",
          "internalType": "address"
        }
      ]
    },
    {
      "type": "error",
      "name": "FailedInnerCall",
      "inputs": []
    },
    {
      "type": "error",
      "name": "Math__DivisionByZero",
      "inputs": []
    },
    {
      "type": "error",
      "name": "Math__UnderOverflow",
      "inputs": []
    },
    {
      "type": "error",
      "name": "PricePoints__OverflowInt256",
      "inputs": []
    },
    {
      "type": "error",
      "name": "PricePoints__TotalSupplyExceeded",
      "inputs": []
    },
    {
      "type": "error",
      "name": "SafeERC20FailedOperation",
      "inputs": [
        {
          "name": "token",
          "type": "address",
          "internalType": "address"
        }
      ]
    },
    {
      "type": "error",
      "name": "TMMarket__AlreadyInitialized",
      "inputs": []
    },
    {
      "type": "error",
      "name": "TMMarket__InsufficientAmount",
      "inputs": []
    },
    {
      "type": "error",
      "name": "TMMarket__InvalidCirculatingSupply",
      "inputs": []
    },
    {
      "type": "error",
      "name": "TMMarket__InvalidFees",
      "inputs": []
    },
    {
      "type": "error",
      "name": "TMMarket__InvalidRecipient",
      "inputs": []
    },
    {
      "type": "error",
      "name": "TMMarket__InvalidSwapCallback",
      "inputs": []
    },
    {
      "type": "error",
      "name": "TMMarket__OnlyFactory",
      "inputs": []
    },
    {
      "type": "error",
      "name": "TMMarket__ReentrantCall",
      "inputs": []
    },
    {
      "type": "error",
      "name": "TMMarket__ReserveOverflow",
      "inputs": []
    },
    {
      "type": "error",
      "name": "TMMarket__ZeroAmount",
      "inputs": []
    }
  ],
  "bytecode": {
    "object": "0x608060405234801561001057600080fd5b5061213d806100206000396000f3fe608060405234801561001057600080fd5b50600436106100f55760003560e01c806388cc58e411610097578063c4e41b2211610066578063c4e41b22146101d8578063c51c2d0e146101e0578063cd56aadc146101fc578063dc35ff771461022a57600080fd5b806388cc58e4146101a257806398acd7a6146101aa578063af688fed146101b2578063c357ed4c146101c557600080fd5b80635b2d9a3c116100d35780635b2d9a3c146101525780637cf0e1f5146101655780637ea516d2146101785780638129fc1c1461019857600080fd5b80630902f1ac146100fa5780632b112e491461011c5780634a64d67d14610132575b600080fd5b61010261023d565b604080519283526020830191909152015b60405180910390f35b610124610265565b604051908152602001610113565b61013a610292565b6040516001600160a01b039091168152602001610113565b610102610160366004611d55565b61029c565b610124610173366004611d85565b61034b565b61018b610186366004611db5565b610455565b6040516101139190611dd2565b6101a06104f4565b005b61013a61057a565b61013a610584565b6101246101c0366004611e32565b61058e565b6101026101d3366004611d55565b610739565b6101246107d7565b6002546001600160801b0380821691600160801b900416610102565b61020f61020a366004611d85565b6107e1565b60408051938452602084019290925290820152606001610113565b610102610238366004611e75565b610882565b60008061025d6001546001600160801b03600160801b8204811692911690565b915091509091565b600154600090600160801b90046001600160801b0316610283610bfe565b61028d9190611f3a565b905090565b600061028d610c0c565b600080826000036102b257506000905080610344565b60008084129080826102ce576102c88688611f3a565b866102d8565b866102d887611f4d565b915091506000806102eb84848788610c18565b915091506001600160ff1b03818317111561031957604051637f5c09ad60e01b815260040160405180910390fd5b600088136103305761032a82611f4d565b8161033a565b8161033a82611f4d565b9650965050505050505b9250929050565b600080610356610bfe565b905082158185106103a8578185111561038257604051630f0f694960e41b815260040160405180910390fd5b61039f600161038f610e0d565b6103999190611f3a565b82610e1b565b9250505061044f565b6103b0610e55565b6103c2670de0b6b3a764000087611f69565b6103cc9190611f96565b945060006103d8610e63565b905060006103e68288611f96565b905060006103f48389611faa565b905060006104028386610e1b565b9050600061041a610414856001611fbe565b87610e1b565b905061043b8361042a8484611f3a565b6104349190611f69565b8688610e71565b6104459083611fbe565b9750505050505050505b92915050565b60606000610461610e0d565b905060008167ffffffffffffffff81111561047e5761047e611fd1565b6040519080825280602002602001820160405280156104a7578160200160208202803683370190505b50905060005b828110156104ec576104bf8186610e1b565b8282815181106104d1576104d1611fe7565b60209081029190910101526104e581611ffd565b90506104ad565b509392505050565b6104fc610ea2565b6001600160a01b0316336001600160a01b03161461052d57604051632f4b4f2560e01b815260040160405180910390fd5b6000541561054e5760405163133cb03d60e21b815260040160405180910390fd5b600360005561055b610bfe565b600180546001600160801b03928316600160801b029216919091179055565b600061028d610ea2565b600061028d610eae565b60008054600190811880835516156105b957604051631493badf60e01b815260040160405180910390fd5b6105c1610ea2565b6001600160a01b0316336001600160a01b0316146105f257604051632f4b4f2560e01b815260040160405180910390fd5b816001600160a01b0316846001600160a01b0316036106275750600280546001600160801b03808216909255600160801b9004165b826001600160a01b0316846001600160a01b03160361067257600254610656906001600160801b031682611fbe565b600280546fffffffffffffffffffffffffffffffff1916905590505b801561072957600180548291906000906106969084906001600160801b0316612016565b92506101000a8154816001600160801b0302191690836001600160801b0316021790555060006106c4610c0c565b90506106da6001600160a01b0382168684610eba565b846001600160a01b0316816001600160a01b03167ffe3464cd748424446c37877c28ce5b700222c5bc9f90d908afcc4e5cb22707ff8460405161071f91815260200190565b60405180910390a3505b6000805460011890559392505050565b6000808260000361074f57506000905080610344565b600080600085131561077d576107658686610f26565b909250905061077382611f4d565b93509150816107a4565b61078f8661078a87611f4d565b6110a1565b90925090508161079e82611f4d565b90945092505b6001600160ff1b0381831711156107ce57604051637f5c09ad60e01b815260040160405180910390fd5b50509250929050565b600061028d610bfe565b600080600084600003610807576040516303eb2e0760e11b815260040160405180910390fd5b600154600090600160801b90046001600160801b0316610825610bfe565b61082f9190611f3a565b9050600086138515151461084c576108478187610739565b610856565b610856818761029c565b9094509250600083131561087a576108778161087186611f4d565b8561122a565b91505b509250925092565b600080546001908118808355829116156108af57604051631493badf60e01b815260040160405180910390fd5b6001600160a01b0388166108d6576040516303174edd60e21b815260040160405180910390fd5b866000036108f7576040516303eb2e0760e11b815260040160405180910390fd5b6000806109176001546001600160801b03600160801b8204811692911690565b91509150600082610926610bfe565b6109309190611f3a565b905060008a138915151461094d57610948818b610739565b610957565b610957818b61029c565b909550935060008080808c61098d5760ff89901d808a011860ff89901d808a0118610980610eae565b610988610c0c565b6109af565b60ff88901d8089011860ff8a901d808b01186109a7610c0c565b6109af610eae565b935093509350935060008411156109de576109de8f85846001600160a01b0316610eba9092919063ffffffff16565b8a15610abf5760006109f18c60a0611fbe565b67ffffffffffffffff811115610a0957610a09611fd1565b6040519080825280601f01601f191660200182016040528015610a33576020820181803683370190505b509050600063c556a18982528a60208301528960408301526060808301528c60808301528c8e60a0840137600460008e60a00184601c016000335af19050808015610a905763c556a18960005160e01c1460043d14169150610a9a565b3d6000803e3d6000fd5b5080600003610abc5760405163eb27a8cd60e01b815260040160405180910390fd5b50505b6040516370a0823160e01b815230600482015260009081906001600160a01b038416906370a0823190602401602060405180830381865afa158015610b08573d6000803e3d6000fd5b505050506040513d601f19601f82011682018060405250810190610b2c919061203d565b90506001600160801b03811115610b565760405163f6b7803960e01b815260040160405180910390fd5b8e610b6f57610b6a8c888b8b8a8a87611250565b610b7c565b610b7c898988888561149c565b9150508f6001600160a01b0316336001600160a01b03167f86cc8bfdfdfabc765ac3e479a03d9e964b00478f3dd26615949fa6b475904b028c8c85604051610bd7939291909283526020830191909152604082015260600190565b60405180910390a3505060008054600118905550959c949b50939950505050505050505050565b600061028d604c6080611521565b600061028d6028611548565b600080610c23610bfe565b861115610c43576040516314760e3760e31b815260040160405180910390fd5b6000610c4d610e0d565b90506000610c59610e55565b90506000610c65610e63565b9050600082610c7c8b670de0b6b3a7640000611f69565b610c869190611f96565b899650905082610c9e87670de0b6b3a7640000611f69565b610ca89190611f96565b98506000610cb68383611f96565b9050610cc28383611faa565b91506000610cd0828b610e1b565b90505b60008b118015610ced575085610ce883611ffd565b925082105b15610db0576000610cfe838c610e1b565b90506000610d1e8d610d108789611f3a565b818118918111919091021890565b90506000610d878288610d32876002611f69565b610d3c9190611f69565b610d47896002611f69565b610d519086611fbe565b610d5b8888611f3a565b610d659190611f69565b610d6f9190611fbe565b610d818a671bc16d674ec80000611f69565b8f61156a565b9050610d93818b611fbe565b9950610d9f828f611f3a565b9d5060009550829350505050610cd3565b610dcc610dbd868d611f69565b670de0b6b3a76400008b610e71565b610dd69089611f3a565b610dfa610de161165e565b610deb908a611f69565b670de0b6b3a76400008c610e71565b9750975050505050505094509492505050565b600061028d606c6008611521565b6000610e4e610e2b846020611f69565b83610e3757607d610e3a565b606d5b60ff16610e479190611fbe565b6080611521565b9392505050565b600061028d603c6040611521565b600061028d605c6080611521565b600082600003610e945760405163677631cf60e11b815260040160405180910390fd5b501581830615171591040190565b600061028d6000611548565b600061028d6014611548565b604080516001600160a01b038416602482015260448082018490528251808303909101815260649091019091526020810180517bffffffffffffffffffffffffffffffffffffffffffffffffffffffff1663a9059cbb60e01b179052610f2190849061166c565b505050565b600080610f31610bfe565b841115610f51576040516314760e3760e31b815260040160405180910390fd5b6000610f5b610e0d565b90506000610f67610e55565b90506000610f7361165e565b90506000610f7f610e63565b9050600083610f968a670de0b6b3a7640000611f69565b610fa09190611f96565b9050600083610fb78a670de0b6b3a7640000611f69565b610fc19190611f96565b90506000610fcf8484611f96565b90506000610fdd8585611faa565b90506000610fec836001610e1b565b90505b60008411801561100957508861100484611ffd565b935083105b1561105957600061101b846001610e1b565b905060008061102d84848b888b6116d4565b909250905061103c828f611fbe565b9d506110488188611f3a565b965060009450829350505050610fef565b611076611066898d611f69565b670de0b6b3a76400006000610e71565b6110836110668987611f69565b61108d908e611f3a565b9a509a505050505050505050509250929050565b6000806110ac610bfe565b8411156110cc576040516314760e3760e31b815260040160405180910390fd5b60006110d6610e55565b905060006110e261165e565b905060006110ee610e63565b905060008361110589670de0b6b3a7640000611f69565b61110f9190611f96565b905060008361112689670de0b6b3a7640000611f69565b6111309190611f96565b9050600061113e8484611f96565b9050600061114c8585611faa565b90508060000361115d575083611169565b61116682611ffd565b91505b6000611176836000610e1b565b90505b6000841180156111895750600083115b156111e35760006111a661119c85612056565b9450846000610e1b565b90506000806111b883858b888b6117f0565b90925090506111c7828e611fbe565b9c506111d38188611f3a565b9650889450829350505050611179565b6112006111f0898c611f69565b670de0b6b3a76400006001610e71565b61120d6111f08987611f69565b611217908d611f3a565b9950995050505050505050509250929050565b60008061123b858560006001610c18565b915050808311156104ec579091039392505050565b60008161125d8487611fbe565b111561127c57604051634bb63a7760e11b815260040160405180910390fd5b6000611292888661128d8987611f3a565b61122a565b9050801561145b576000806000806112a8611887565b919450925090506000816112bc8486611fbe565b6112c69190611fbe565b90506000816112d58589611f69565b6112df9190611f96565b90506000826112ee858a611f69565b6112f89190611f96565b905080611305838a611f3a565b61130f9190611f3a565b60028054919850839160009061132f9084906001600160801b031661206d565b92506101000a8154816001600160801b0302191690836001600160801b0316021790555080600260108282829054906101000a90046001600160801b0316611377919061206d565b92506101000a8154816001600160801b0302191690836001600160801b0316021790555050505050505080846113ad9190611f3a565b935060006113b9610ea2565b905060006113c5610c0c565b90506113db6001600160a01b0382168385610eba565b6040516325a6bbf560e11b81526001600160a01b0382811660048301528d8116602483015260448201859052831690634b4d77ea906064016020604051808303816000875af1158015611432573d6000803e3d6000fd5b505050506040513d601f19601f82011682018060405250810190611456919061208d565b505050505b6114658588611f3a565b6001600160801b038481169116600160801b026fffffffffffffffffffffffffffffffff1916176001559050979650505050505050565b6000816114a98488611fbe565b11156114c857604051634bb63a7760e11b815260040160405180910390fd5b600180546001600160801b03808516600160801b0291161790556114ec8486611f3a565b600180546fffffffffffffffffffffffffffffffff19166001600160801b039290921691909117905550600095945050505050565b60008061152c611909565b9050602084820160003960005183610100031c91505092915050565b600080611553611909565b90506020838201600039505060005160601c919050565b60008260000361158d5760405163677631cf60e11b815260040160405180910390fd5b600019848609848602808210818303039150811560018114611644578583106115be5763115285766000526004601cfd5b8587890960008781038816978890049782850381900494831190950360019186900395909504018402929092176002600388028118808902820302808902820302808902820302808902820302808902820302808902909103028102861584151715810195509092908086101561163d5763115285766000526004601cfd5b5050611653565b84158683061517158683040193505b505050949350505050565b600061028d60446040611521565b60006116816001600160a01b03841683611920565b905080516000141580156116a65750808060200190518101906116a4919061208d565b155b15610f2157604051635274afe760e01b81526001600160a01b03841660048201526024015b60405180910390fd5b600080806116e28888611f3a565b9050600061172d86886116f68c6002611f69565b6117009190611f69565b61170a8986611f69565b6117149190611fbe565b6117268a671bc16d674ec80000611f69565b600061156a565b905060006117598861173f8b8d611fbe565b6117499190611f69565b671bc16d674ec800006001610e71565b905060006117678383611f3a565b90508087106117845793508361177d888a611f3a565b95506117e2565b86945060006117a0858d8c6117998a89611fbe565b600061192e565b90508060006117af878c611f69565b8c8f6117bb9190611f69565b6117c59190611fbe565b90506117dc6117d48284611f3a565b886000610e71565b98505050505b505050509550959350505050565b600080806117fe8888611f3a565b9050600061181286886116f68c6002611f69565b90508085106118265780925085935061187b565b849250600061183b838b8a6117998887611f3a565b905060006118498489611f69565b6118538a8d611f69565b61185d9190611fbe565b90508161187561186d8284611f3a565b866001610e71565b96505050505b50509550959350505050565b6000806000611894610ea2565b604051633de8682160e01b81523060048201526001600160a01b039190911690633de8682190602401606060405180830381865afa1580156118da573d6000803e3d6000fd5b505050506040513d601f19601f820116820180604052508101906118fe91906120aa565b925092509250909192565b600060023803602081600039505060005160f01c90565b6060610e4e838360006119a7565b6000808061195661193f8988611f69565b61195187671bc16d674ec80000611f69565b611a44565b909250905060008061197561196b898b611f69565b6119518a8c611f69565b9150915060008061198886868686611a63565b9150915061199782828a611aa4565b9c9b505050505050505050505050565b6060814710156119cc5760405163cd78605960e01b81523060048201526024016116cb565b600080856001600160a01b031684866040516119e891906120d8565b60006040518083038185875af1925050503d8060008114611a25576040519150601f19603f3d011682016040523d82523d6000602084013e611a2a565b606091505b5091509150611a3a868383611bf5565b9695505050505050565b6000806000198385098385029250828110838203039150509250929050565b8382018481108483019081019085811090821017156000819003611a9a576040516308a942bb60e11b815260040160405180910390fd5b5094509492505050565b600082600003611abf57611ab88483611c51565b9050610e4e565b6000198303611ae1576040516308a942bb60e11b815260040160405180910390fd5b600160fe1b600160801b841060800293841b600160c01b811060400290811b600160e01b811060200290811b600160f01b811060100290811b600160f81b811060080290811b600160fc1b811060040290811b9586106002029490980192909201010194909401840185811b9561010082900381901c9290951b9190911793906000611b6d8682611c51565b600181811b8280028903608081811c600081900384810690910192821b8d831c17848106939093018481049185900493859004939093010180821c9390920680821c848110941483800291831b6001600160801b038f16179190911016929092179390911b019190910392901c9190911c808002909214841517159091019150509392505050565b606082611c0a57611c0582611d29565b610e4e565b8151158015611c2157506001600160a01b0384163b155b15611c4a57604051639996b31560e01b81526001600160a01b03851660048201526024016116cb565b5080610e4e565b600082600003611c635750600061044f565b6000611cd984600160806001600160801b0383110291821c604067ffffffffffffffff82110290811c602063ffffffff82110290811c601061ffff82110290811c600860ff82110290811c6004600f82110290811c6002600382110290811c969096119490960192909201010192909201010190565b600190811c81811b9086901c01811c80860401811c80860401811c80860401811c80860401811c80860401811c80860401901c808504811190038080029094119215159290920290920192915050565b805115611d395780518082602001fd5b604051630a12f52160e11b815260040160405180910390fd5b50565b60008060408385031215611d6857600080fd5b50508035926020909101359150565b8015158114611d5257600080fd5b60008060408385031215611d9857600080fd5b823591506020830135611daa81611d77565b809150509250929050565b600060208284031215611dc757600080fd5b8135610e4e81611d77565b6020808252825182820181905260009190848201906040850190845b81811015611e0a57835183529284019291840191600101611dee565b50909695505050505050565b80356001600160a01b0381168114611e2d57600080fd5b919050565b600080600060608486031215611e4757600080fd5b611e5084611e16565b9250611e5e60208501611e16565b9150611e6c60408501611e16565b90509250925092565b60008060008060008060a08789031215611e8e57600080fd5b611e9787611e16565b9550602087013594506040870135611eae81611d77565b9350606087013567ffffffffffffffff80821115611ecb57600080fd5b818901915089601f830112611edf57600080fd5b813581811115611eee57600080fd5b8a6020828501011115611f0057600080fd5b602083019550809450505050611f1860808801611e16565b90509295509295509295565b634e487b7160e01b600052601160045260246000fd5b8181038181111561044f5761044f611f24565b6000600160ff1b8201611f6257611f62611f24565b5060000390565b808202811582820484141761044f5761044f611f24565b634e487b7160e01b600052601260045260246000fd5b600082611fa557611fa5611f80565b500490565b600082611fb957611fb9611f80565b500690565b8082018082111561044f5761044f611f24565b634e487b7160e01b600052604160045260246000fd5b634e487b7160e01b600052603260045260246000fd5b60006001820161200f5761200f611f24565b5060010190565b6001600160801b0382811682821603908082111561203657612036611f24565b5092915050565b60006020828403121561204f57600080fd5b5051919050565b60008161206557612065611f24565b506000190190565b6001600160801b0381811683821601908082111561203657612036611f24565b60006020828403121561209f57600080fd5b8151610e4e81611d77565b6000806000606084860312156120bf57600080fd5b8351925060208401519150604084015190509250925092565b6000825160005b818110156120f957602081860181015185830152016120df565b50600092019182525091905056fea264697066735822122053777c5bc040cb6fa9c333a18b8fb52c7e46cd01ef26680bf89718e9267db6f264736f6c63430008140033",
    "linkReferences": {}
  },
  "methodIdentifiers": {
    "claimFees(address,address,address)": "af688fed",
    "getBaseToken()": "98acd7a6",
    "getCirculatingSupply()": "2b112e49",
    "getDeltaAmounts(int256,bool)": "cd56aadc",
    "getDeltaBaseAmount(uint256,int256)": "c357ed4c",
    "getDeltaQuoteAmount(uint256,int256)": "5b2d9a3c",
    "getFactory()": "88cc58e4",
    "getPendingFees()": "c51c2d0e",
    "getPriceAt(uint256,bool)": "7cf0e1f5",
    "getPricePoints(bool)": "7ea516d2",
    "getQuoteToken()": "4a64d67d",
    "getReserves()": "0902f1ac",
    "getTotalSupply()": "c4e41b22",
    "initialize()": "8129fc1c",
    "swap(address,int256,bool,bytes,address)": "dc35ff77"
  },
  "id": 52
}