{
  "abi": [
    {
      "type": "constructor",
      "inputs": [
        {
          "name": "_factory",
          "type": "address",
          "internalType": "address"
        }
      ],
      "stateMutability": "nonpayable"
    },
    {
      "type": "function",
      "name": "FACTORY",
      "inputs": [],
      "outputs": [
        {
          "name": "",
          "type": "address",
          "internalType": "address"
        }
      ],
      "stateMutability": "view"
    },
    {
      "type": "function",
      "name": "claimRewards",
      "inputs": [
        {
          "name": "token",
          "type": "address",
          "internalType": "address"
        },
        {
          "name": "to",
          "type": "address",
          "internalType": "address"
        }
      ],
      "outputs": [
        {
          "name": "",
          "type": "uint256",
          "internalType": "uint256"
        }
      ],
      "stateMutability": "nonpayable"
    },
    {
      "type": "function",
      "name": "createVestingSchedule",
      "inputs": [
        {
          "name": "token",
          "type": "address",
          "internalType": "address"
        },
        {
          "name": "beneficiary",
          "type": "address",
          "internalType": "address"
        },
        {
          "name": "amount",
          "type": "uint128",
          "internalType": "uint128"
        },
        {
          "name": "minAmount",
          "type": "uint128",
          "internalType": "uint128"
        },
        {
          "name": "start",
          "type": "uint80",
          "internalType": "uint80"
        },
        {
          "name": "cliffDuration",
          "type": "uint80",
          "internalType": "uint80"
        },
        {
          "name": "vestingDuration",
          "type": "uint80",
          "internalType": "uint80"
        }
      ],
      "outputs": [
        {
          "name": "index",
          "type": "uint256",
          "internalType": "uint256"
        }
      ],
      "stateMutability": "nonpayable"
    },
    {
      "type": "function",
      "name": "deposit",
      "inputs": [
        {
          "name": "token",
          "type": "address",
          "internalType": "address"
        },
        {
          "name": "to",
          "type": "address",
          "internalType": "address"
        },
        {
          "name": "amount",
          "type": "uint256",
          "internalType": "uint256"
        },
        {
          "name": "minAmount",
          "type": "uint256",
          "internalType": "uint256"
        }
      ],
      "outputs": [
        {
          "name": "actualAmount",
          "type": "uint256",
          "internalType": "uint256"
        }
      ],
      "stateMutability": "nonpayable"
    },
    {
      "type": "function",
      "name": "getNumberOfTokensOf",
      "inputs": [
        {
          "name": "account",
          "type": "address",
          "internalType": "address"
        }
      ],
      "outputs": [
        {
          "name": "",
          "type": "uint256",
          "internalType": "uint256"
        }
      ],
      "stateMutability": "view"
    },
    {
      "type": "function",
      "name": "getNumberOfVestings",
      "inputs": [
        {
          "name": "token",
          "type": "address",
          "internalType": "address"
        }
      ],
      "outputs": [
        {
          "name": "",
          "type": "uint256",
          "internalType": "uint256"
        }
      ],
      "stateMutability": "view"
    },
    {
      "type": "function",
      "name": "getNumberOfVestingsOf",
      "inputs": [
        {
          "name": "token",
          "type": "address",
          "internalType": "address"
        },
        {
          "name": "account",
          "type": "address",
          "internalType": "address"
        }
      ],
      "outputs": [
        {
          "name": "",
          "type": "uint256",
          "internalType": "uint256"
        }
      ],
      "stateMutability": "view"
    },
    {
      "type": "function",
      "name": "getPendingRewards",
      "inputs": [
        {
          "name": "token",
          "type": "address",
          "internalType": "address"
        },
        {
          "name": "account",
          "type": "address",
          "internalType": "address"
        }
      ],
      "outputs": [
        {
          "name": "pending",
          "type": "uint256",
          "internalType": "uint256"
        }
      ],
      "stateMutability": "view"
    },
    {
      "type": "function",
      "name": "getReleasableAmount",
      "inputs": [
        {
          "name": "token",
          "type": "address",
          "internalType": "address"
        },
        {
          "name": "index",
          "type": "uint256",
          "internalType": "uint256"
        }
      ],
      "outputs": [
        {
          "name": "",
          "type": "uint256",
          "internalType": "uint256"
        }
      ],
      "stateMutability": "view"
    },
    {
      "type": "function",
      "name": "getStakeOf",
      "inputs": [
        {
          "name": "token",
          "type": "address",
          "internalType": "address"
        },
        {
          "name": "account",
          "type": "address",
          "internalType": "address"
        }
      ],
      "outputs": [
        {
          "name": "amount",
          "type": "uint256",
          "internalType": "uint256"
        },
        {
          "name": "lockedAmount",
          "type": "uint256",
          "internalType": "uint256"
        }
      ],
      "stateMutability": "view"
    },
    {
      "type": "function",
      "name": "getTokenOf",
      "inputs": [
        {
          "name": "account",
          "type": "address",
          "internalType": "address"
        },
        {
          "name": "index",
          "type": "uint256",
          "internalType": "uint256"
        }
      ],
      "outputs": [
        {
          "name": "",
          "type": "address",
          "internalType": "address"
        }
      ],
      "stateMutability": "view"
    },
    {
      "type": "function",
      "name": "getTotalStake",
      "inputs": [
        {
          "name": "token",
          "type": "address",
          "internalType": "address"
        }
      ],
      "outputs": [
        {
          "name": "totalStaked",
          "type": "uint256",
          "internalType": "uint256"
        },
        {
          "name": "totalLocked",
          "type": "uint256",
          "internalType": "uint256"
        }
      ],
      "stateMutability": "view"
    },
    {
      "type": "function",
      "name": "getVestedAmount",
      "inputs": [
        {
          "name": "token",
          "type": "address",
          "internalType": "address"
        },
        {
          "name": "index",
          "type": "uint256",
          "internalType": "uint256"
        },
        {
          "name": "timestamp",
          "type": "uint256",
          "internalType": "uint256"
        }
      ],
      "outputs": [
        {
          "name": "",
          "type": "uint256",
          "internalType": "uint256"
        }
      ],
      "stateMutability": "view"
    },
    {
      "type": "function",
      "name": "getVestingIndexOf",
      "inputs": [
        {
          "name": "token",
          "type": "address",
          "internalType": "address"
        },
        {
          "name": "account",
          "type": "address",
          "internalType": "address"
        },
        {
          "name": "index",
          "type": "uint256",
          "internalType": "uint256"
        }
      ],
      "outputs": [
        {
          "name": "",
          "type": "uint256",
          "internalType": "uint256"
        }
      ],
      "stateMutability": "view"
    },
    {
      "type": "function",
      "name": "getVestingScheduleAt",
      "inputs": [
        {
          "name": "token",
          "type": "address",
          "internalType": "address"
        },
        {
          "name": "index",
          "type": "uint256",
          "internalType": "uint256"
        }
      ],
      "outputs": [
        {
          "name": "",
          "type": "tuple",
          "internalType": "struct ITMStaking.VestingSchedule",
          "components": [
            {
              "name": "beneficiary",
              "type": "address",
              "internalType": "address"
            },
            {
              "name": "total",
              "type": "uint128",
              "internalType": "uint128"
            },
            {
              "name": "released",
              "type": "uint128",
              "internalType": "uint128"
            },
            {
              "name": "start",
              "type": "uint80",
              "internalType": "uint80"
            },
            {
              "name": "cliffDuration",
              "type": "uint80",
              "internalType": "uint80"
            },
            {
              "name": "vestingDuration",
              "type": "uint80",
              "internalType": "uint80"
            }
          ]
        }
      ],
      "stateMutability": "view"
    },
    {
      "type": "function",
      "name": "initialize",
      "inputs": [],
      "outputs": [],
      "stateMutability": "nonpayable"
    },
    {
      "type": "function",
      "name": "transferVesting",
      "inputs": [
        {
          "name": "token",
          "type": "address",
          "internalType": "address"
        },
        {
          "name": "newBeneficiary",
          "type": "address",
          "internalType": "address"
        },
        {
          "name": "index",
          "type": "uint256",
          "internalType": "uint256"
        }
      ],
      "outputs": [
        {
          "name": "",
          "type": "uint256",
          "internalType": "uint256"
        }
      ],
      "stateMutability": "nonpayable"
    },
    {
      "type": "function",
      "name": "unlock",
      "inputs": [
        {
          "name": "token",
          "type": "address",
          "internalType": "address"
        },
        {
          "name": "index",
          "type": "uint256",
          "internalType": "uint256"
        }
      ],
      "outputs": [
        {
          "name": "unlocked",
          "type": "uint256",
          "internalType": "uint256"
        }
      ],
      "stateMutability": "nonpayable"
    },
    {
      "type": "function",
      "name": "withdraw",
      "inputs": [
        {
          "name": "token",
          "type": "address",
          "internalType": "address"
        },
        {
          "name": "to",
          "type": "address",
          "internalType": "address"
        },
        {
          "name": "amount",
          "type": "uint256",
          "internalType": "uint256"
        }
      ],
      "outputs": [
        {
          "name": "",
          "type": "uint256",
          "internalType": "uint256"
        }
      ],
      "stateMutability": "nonpayable"
    },
    {
      "type": "event",
      "name": "Claim",
      "inputs": [
        {
          "name": "account",
          "type": "address",
          "indexed": true,
          "internalType": "address"
        },
        {
          "name": "token",
          "type": "address",
          "indexed": true,
          "internalType": "address"
        },
        {
          "name": "rewardToken",
          "type": "address",
          "indexed": true,
          "internalType": "address"
        },
        {
          "name": "amount",
          "type": "uint256",
          "indexed": false,
          "internalType": "uint256"
        }
      ],
      "anonymous": false
    },
    {
      "type": "event",
      "name": "EmergencyUpdate",
      "inputs": [
        {
          "name": "account",
          "type": "address",
          "indexed": true,
          "internalType": "address"
        },
        {
          "name": "token",
          "type": "address",
          "indexed": true,
          "internalType": "address"
        },
        {
          "name": "deltaAmount",
          "type": "int256",
          "indexed": false,
          "internalType": "int256"
        },
        {
          "name": "deltaLockedAmount",
          "type": "int256",
          "indexed": false,
          "internalType": "int256"
        }
      ],
      "anonymous": false
    },
    {
      "type": "event",
      "name": "Initialized",
      "inputs": [
        {
          "name": "version",
          "type": "uint64",
          "indexed": false,
          "internalType": "uint64"
        }
      ],
      "anonymous": false
    },
    {
      "type": "event",
      "name": "Update",
      "inputs": [
        {
          "name": "account",
          "type": "address",
          "indexed": true,
          "internalType": "address"
        },
        {
          "name": "token",
          "type": "address",
          "indexed": true,
          "internalType": "address"
        },
        {
          "name": "deltaAmount",
          "type": "int256",
          "indexed": false,
          "internalType": "int256"
        },
        {
          "name": "deltaLockedAmount",
          "type": "int256",
          "indexed": false,
          "internalType": "int256"
        }
      ],
      "anonymous": false
    },
    {
      "type": "event",
      "name": "VestingScheduleCreated",
      "inputs": [
        {
          "name": "token",
          "type": "address",
          "indexed": true,
          "internalType": "address"
        },
        {
          "name": "creator",
          "type": "address",
          "indexed": true,
          "internalType": "address"
        },
        {
          "name": "beneficiary",
          "type": "address",
          "indexed": true,
          "internalType": "address"
        },
        {
          "name": "amount",
          "type": "uint256",
          "indexed": false,
          "internalType": "uint256"
        },
        {
          "name": "start",
          "type": "uint80",
          "indexed": false,
          "internalType": "uint80"
        },
        {
          "name": "cliffDuration",
          "type": "uint80",
          "indexed": false,
          "internalType": "uint80"
        },
        {
          "name": "vestingDuration",
          "type": "uint80",
          "indexed": false,
          "internalType": "uint80"
        }
      ],
      "anonymous": false
    },
    {
      "type": "event",
      "name": "VestingScheduleTransferred",
      "inputs": [
        {
          "name": "token",
          "type": "address",
          "indexed": true,
          "internalType": "address"
        },
        {
          "name": "index",
          "type": "uint256",
          "indexed": true,
          "internalType": "uint256"
        },
        {
          "name": "oldBeneficiary",
          "type": "address",
          "indexed": false,
          "internalType": "address"
        },
        {
          "name": "newBeneficiary",
          "type": "address",
          "indexed": false,
          "internalType": "address"
        }
      ],
      "anonymous": false
    },
    {
      "type": "error",
      "name": "AddressEmptyCode",
      "inputs": [
        {
          "name": "target",
          "type": "address",
          "internalType": "address"
        }
      ]
    },
    {
      "type": "error",
      "name": "AddressInsufficientBalance",
      "inputs": [
        {
          "name": "account",
          "type": "address",
          "internalType": "address"
        }
      ]
    },
    {
      "type": "error",
      "name": "FailedInnerCall",
      "inputs": []
    },
    {
      "type": "error",
      "name": "InvalidInitialization",
      "inputs": []
    },
    {
      "type": "error",
      "name": "NotInitializing",
      "inputs": []
    },
    {
      "type": "error",
      "name": "ReentrancyGuardReentrantCall",
      "inputs": []
    },
    {
      "type": "error",
      "name": "SafeERC20FailedOperation",
      "inputs": [
        {
          "name": "token",
          "type": "address",
          "internalType": "address"
        }
      ]
    },
    {
      "type": "error",
      "name": "TMStakingInsufficientAmountReceived",
      "inputs": [
        {
          "name": "received",
          "type": "uint256",
          "internalType": "uint256"
        },
        {
          "name": "minAmount",
          "type": "uint256",
          "internalType": "uint256"
        }
      ]
    },
    {
      "type": "error",
      "name": "TMStakingInsufficientStake",
      "inputs": [
        {
          "name": "amount",
          "type": "int256",
          "internalType": "int256"
        },
        {
          "name": "lockedAmount",
          "type": "int256",
          "internalType": "int256"
        }
      ]
    },
    {
      "type": "error",
      "name": "TMStakingInvalidCliffDuration",
      "inputs": []
    },
    {
      "type": "error",
      "name": "TMStakingInvalidToken",
      "inputs": [
        {
          "name": "token",
          "type": "address",
          "internalType": "address"
        }
      ]
    },
    {
      "type": "error",
      "name": "TMStakingInvalidVestingSchedule",
      "inputs": []
    },
    {
      "type": "error",
      "name": "TMStakingOnlyBeneficiary",
      "inputs": []
    },
    {
      "type": "error",
      "name": "TMStakingOverflow",
      "inputs": []
    },
    {
      "type": "error",
      "name": "TMStakingSameBeneficiary",
      "inputs": []
    },
    {
      "type": "error",
      "name": "TMStakingVestingExpired",
      "inputs": []
    },
    {
      "type": "error",
      "name": "TMStakingZeroAmount",
      "inputs": []
    },
    {
      "type": "error",
      "name": "TMStakingZeroBeneficiary",
      "inputs": []
    },
    {
      "type": "error",
      "name": "TMStakingZeroUnlockedAmount",
      "inputs": []
    }
  ],
  "bytecode": {
    "object": "0x60a060405234801561001057600080fd5b50604051620023aa380380620023aa83398101604081905261003191610042565b6001600160a01b0316608052610072565b60006020828403121561005457600080fd5b81516001600160a01b038116811461006b57600080fd5b9392505050565b608051612307620000a360003960008181610260015281816108f3015281816119fb0152611af201526123076000f3fe608060405234801561001057600080fd5b50600436106101515760003560e01c80637eee288d116100cd578063d5f524bb11610081578063d9caed1211610066578063d9caed12146103cb578063eb9c8a1a146103de578063f1e42ccd146103f157600080fd5b8063d5f524bb146103a5578063d6e925ed146103b857600080fd5b8063852e78b6116100b2578063852e78b61461036c578063a23a01251461037f578063a85052421461039257600080fd5b80637eee288d1461034f5780638129fc1c1461036257600080fd5b80634bcec580116101245780635bbfef19116101095780635bbfef19146102d9578063762cf138146102ec5780637a27db571461033c57600080fd5b80634bcec5801461029a5780634f8acca3146102ad57600080fd5b806318943657146101565780631e7ff8f6146101e757806320e8c5651461023a5780632dd310001461025b575b600080fd5b610169610164366004611f0e565b610404565b6040516101de9190600060c0820190506001600160a01b03835116825260208301516001600160801b038082166020850152806040860151166040850152505060608301516001600160501b0380821660608501528060808601511660808501528060a08601511660a0850152505092915050565b60405180910390f35b6102256101f5366004611f3a565b6001600160a01b03166000908152602081905260409020546001600160801b0380821692600160801b9092041690565b604080519283526020830191909152016101de565b61024d610248366004611f57565b6104e8565b6040519081526020016101de565b6102827f000000000000000000000000000000000000000000000000000000000000000081565b6040516001600160a01b0390911681526020016101de565b61024d6102a8366004611f9d565b610581565b61024d6102bb366004611f3a565b6001600160a01b031660009081526020819052604090206003015490565b61024d6102e7366004611fde565b610823565b6102256102fa366004612013565b6001600160a01b03918216600090815260208181526040808320939094168252600290920190915220546001600160801b0380821692600160801b9092041690565b61024d61034a366004612013565b6108ae565b61024d61035d366004611f0e565b610ae0565b61036a610c33565b005b61024d61037a36600461207f565b610d55565b61024d61038d366004611f3a565b6110bb565b61024d6103a0366004611f9d565b6110dc565b6102826103b3366004611f0e565b611112565b61024d6103c6366004612013565b611134565b61024d6103d9366004611f9d565b611169565b61024d6103ec366004611f0e565b611256565b61024d6103ff366004612013565b6112ee565b6040805160c08101825260008082526020808301829052828401829052606083018290526080830182905260a083018290526001600160a01b03861682528190529190912060030180548390811061045e5761045e612109565b60009182526020918290206040805160c081018252600390930290910180546001600160a01b0316835260018101546001600160801b0380821695850195909552600160801b9004909316908201526002909101546001600160501b038082166060840152600160501b820481166080840152600160a01b9091041660a082015290505b92915050565b60006104f261143a565b6001600160a01b03841661051957604051631adc7f2f60e31b815260040160405180910390fd5b6001600160a01b03808616600090815260208181526040808320938816835260028401909152902061054d87338787611472565b925061055e828289898760006115e9565b5050505061057960016000805160206122b283398151915255565b949350505050565b600061058b61143a565b6001600160a01b0383166105b257604051631adc7f2f60e31b815260040160405180910390fd5b6001600160a01b0384166000908152602081905260408120600381018054919291859081106105e3576105e3612109565b6000918252602090912060039091020180549091506001600160a01b031633811461062057604051621d63e760ea1b815260040160405180910390fd5b856001600160a01b0316816001600160a01b0316036106525760405163084ba92160e41b815260040160405180910390fd5b6001600160a01b03808216600090815260028086016020526040808320938a168352822060018601549186015490926001600160801b0390921691906106b99083906001600160501b0380821691600160501b8104821691600160a01b9091041642611883565b60018701549091506000906106de90600160801b90046001600160801b031683612135565b905060006106ec8385612135565b90508060000361070f57604051637f9143c360e01b815260040160405180910390fd5b87546001600160a01b038d1673ffffffffffffffffffffffffffffffffffffffff199091161788556001880180546001600160801b03808616600160801b029116179055610760600387018c6118db565b5061076e600386018c6118e7565b5061078f89878f8a866107818188612148565b61078a9061215b565b6115e9565b50506107a089868f8f6000866115e9565b50508a8d6001600160a01b03167f8f15b9e435a9d3135fee22a26777f919c2416f645bf75d670d6ecef5e3f107e5898f6040516107f39291906001600160a01b0392831681529116602082015260400190565b60405180910390a39850505050505050505061081c60016000805160206122b283398151915255565b9392505050565b6001600160a01b038316600090815260208190526040812060030180548291908590811061085357610853612109565b60009182526020909120600390910201600181015460028201549192506108a5916001600160801b03909116906001600160501b0380821691600160501b8104821691600160a01b9091041687611883565b95945050505050565b6001600160a01b0382811660008181526020818152604080832086861684526002810190925280832090516306ca51cd60e41b815260048101949094529193909284917f00000000000000000000000000000000000000000000000000000000000000001690636ca51cd090602401602060405180830381865afa15801561093a573d6000803e3d6000fd5b505050506040513d601f19601f8201168201806040525081019061095e9190612177565b90506001600160a01b03811661099757604051634e0bb45960e01b81526001600160a01b03871660048201526024015b60405180910390fd5b81546000906109b8906001600160801b03600160801b820481169116612194565b84546001600160801b0391821692506000916109de91600160801b810482169116612194565b600185015496506001600160801b031690508015610ad5576000836001600160a01b031663c51c2d0e6040518163ffffffff1660e01b81526004016040805180830381865afa158015610a35573d6000803e3d6000fd5b505050506040513d601f19601f82011682018060405250810190610a5991906121b4565b91506000905082610a786d04ee2d6d415b85acef8100000000846121d8565b610a8291906121ef565b8760010154610a919190612148565b90506d04ee2d6d415b85acef8100000000866002015482610ab29190612135565b610abc90866121d8565b610ac691906121ef565b610ad09089612148565b975050505b505050505092915050565b6000610aea61143a565b6001600160a01b038316600090815260208190526040812060038101805491929185908110610b1b57610b1b612109565b60009182526020808320600390920290910180546001600160a01b0316808452600280870190935260408420600183015493830154929550909390926001600160801b031691610b8c9083906001600160501b0380821691600160501b8104821691600160a01b9091041642611883565b6001860154909150610bae90600160801b90046001600160801b031682612135565b965086600003610bd1576040516348e95d4360e11b815260040160405180910390fd5b6001850180546001600160801b03808416600160801b029116179055808203610c0357610c0160038401896118db565b505b610c1486848b878b61078a8161215b565b50505050505050506104e260016000805160206122b283398151915255565b7ff0c57e16840df040f15088dc2f81fe391c3923bec73e23a9662efc9c229c6a00805468010000000000000000810460ff16159067ffffffffffffffff16600081158015610c7e5750825b905060008267ffffffffffffffff166001148015610c9b5750303b155b905081158015610ca9575080155b15610cc75760405163f92ee8a960e01b815260040160405180910390fd5b845467ffffffffffffffff191660011785558315610cfb57845468ff00000000000000001916680100000000000000001785555b610d036118f3565b8315610d4e57845468ff000000000000000019168555604051600181527fc7f505b2f371ae2175ee4913f4499e1f2633a7b5936321eed1cdaeb6115181d29060200160405180910390a15b5050505050565b6000610d5f61143a565b816001600160501b0316836001600160501b03161115610d92576040516315a76ff360e31b815260040160405180910390fd5b42610d9d8386612211565b6001600160501b031611610dc457604051631f3e535160e11b815260040160405180910390fd5b6001600160a01b038716610deb57604051631adc7f2f60e31b815260040160405180910390fd5b6000610e0b8933896001600160801b0316896001600160801b0316611472565b905060008060008b6001600160a01b03166001600160a01b03168152602001908152602001600020905060008160020160008b6001600160a01b03166001600160a01b03168152602001908152602001600020905081600301805490509350816003016040518060c001604052808c6001600160a01b03168152602001856001600160801b0316815260200160006001600160801b03168152602001896001600160501b03168152602001886001600160501b03168152602001876001600160501b0316815250908060018154018082558091505060019003906000526020600020906003020160009091909190915060008201518160000160006101000a8154816001600160a01b0302191690836001600160a01b0316021790555060208201518160010160006101000a8154816001600160801b0302191690836001600160801b0316021790555060408201518160010160106101000a8154816001600160801b0302191690836001600160801b0316021790555060608201518160020160006101000a8154816001600160501b0302191690836001600160501b03160217905550608082015181600201600a6101000a8154816001600160501b0302191690836001600160501b0316021790555060a08201518160020160146101000a8154816001600160501b0302191690836001600160501b03160217905550505061102184826003016118e790919063ffffffff16565b5061103182828d8d6000886115e9565b5050604080518481526001600160501b038981166020830152888116828401528716606082015290516001600160a01b038c8116923392918f16917f7d92b17959a528c4d0b58a721e638ab542fc8cc8d8cd713cca8050affe31a3969181900360800190a45050506110b060016000805160206122b283398151915255565b979650505050505050565b6001600160a01b03811660009081526001602052604081206104e290611905565b6001600160a01b03808416600090815260208181526040808320938616835260029093019052908120610579906003018361190f565b6001600160a01b038216600090815260016020526040812061081c908361190f565b6001600160a01b0380831660009081526020818152604080832093851683526002909301905290812061081c90600301611905565b600061117361143a565b8160000361119457604051632214c6a160e11b815260040160405180910390fd5b6001600160801b038211156111bc57604051634d3e7ffd60e11b815260040160405180910390fd5b6001600160a01b0383166111e357604051631adc7f2f60e31b815260040160405180910390fd5b6001600160a01b03841660009081526020818152604080832033808552600282019093529220906112249083908390899061121d8961215b565b60006115e9565b5061123b90506001600160a01b038716868661191b565b505060016000805160206122b283398151915255508061081c565b6001600160a01b038216600090815260208190526040812060030180548291908490811061128657611286612109565b6000918252602090912060016003909202019081015460028201549192506001600160801b03600160801b82048116926112e49291909116906001600160501b0380821691600160501b8104821691600160a01b9091041642611883565b6105799190612135565b60006112f861143a565b6001600160a01b038316600090815260208181526040808320338085526002820190935290832090929091819061133690859085908a9085806115e9565b9092509050801561141e57600083600101819055506000826001600160a01b0316634a64d67d6040518163ffffffff1660e01b8152600401602060405180830381865afa15801561138b573d6000803e3d6000fd5b505050506040513d601f19601f820116820180604052508101906113af9190612177565b90506113c56001600160a01b038216888461191b565b806001600160a01b0316886001600160a01b0316336001600160a01b03167fc1405953cccdad6b442e266c84d66ad671e2534c6584f8e6ef92802f7ad294d58560405161141491815260200190565b60405180910390a4505b93505050506104e260016000805160206122b283398151915255565b6000805160206122b283398151915280546001190161146c57604051633ee5aeb560e01b815260040160405180910390fd5b60029055565b6040516370a0823160e01b815230600482015260009081906001600160a01b038716906370a0823190602401602060405180830381865afa1580156114bb573d6000803e3d6000fd5b505050506040513d601f19601f820116820180604052508101906114df9190612231565b90506114f66001600160a01b038716863087611994565b6040516370a0823160e01b815230600482015281906001600160a01b038816906370a0823190602401602060405180830381865afa15801561153c573d6000803e3d6000fd5b505050506040513d601f19601f820116820180604052508101906115609190612231565b61156a9190612135565b91508160000361158d57604051632214c6a160e11b815260040160405180910390fd5b6001600160801b038211156115b557604051634d3e7ffd60e11b815260040160405180910390fd5b828210156115e0576040516346a40b4560e01b8152600481018390526024810184905260440161098e565b50949350505050565b6000806000806000806115fc8c8b6119d3565b8e54939750919550935091506001600160801b0380821691600160801b90041660006116288284612148565b9050801561167f576d04ee2d6d415b85acef81000000008e600201548561164f9190612135565b61165990836121d8565b61166391906121ef565b8e60010160008282546116769190612148565b92505081905597505b60028e018490558a8a171561185b578215801561169a575081155b156116c3576001600160a01b038c1660009081526001602052604090206116c1908e611bac565b505b918a019190890190600082841712156116f9576040516302c82a1b60e51b8152600481018490526024810183905260440161098e565b948a0194938901936001600160801b03858717111561172b57604051634d3e7ffd60e11b815260040160405180910390fd5b82158015611737575081155b15611760576001600160a01b038c16600090815260016020526040902061175e908e611bc1565b505b828e60000160006101000a8154816001600160801b0302191690836001600160801b03160217905550818e60000160106101000a8154816001600160801b0302191690836001600160801b03160217905550858f60000160006101000a8154816001600160801b0302191690836001600160801b03160217905550848f60000160106101000a8154816001600160801b0302191690836001600160801b031602179055508c6001600160a01b03168c6001600160a01b03167f885f8a20123cf81bbcf1b6db2ea5f37ab88bf3d3a94bf8754c611a60dee15bf18d8d604051611852929190918252602082015260400190565b60405180910390a35b509496505050505050965096945050505050565b60016000805160206122b283398151915255565b600061188f8386612148565b821061189b57856118d1565b6118a58486612148565b82116118b25760006118d1565b826118bd8684612135565b6118c790886121d8565b6118d191906121ef565b9695505050505050565b600061081c8383611bd2565b600061081c8383611ccc565b6118fb611d1b565b611903611d69565b565b60006104e2825490565b600061081c8383611d71565b6040516001600160a01b0383811660248301526044820183905261198f91859182169063a9059cbb906064015b604051602081830303815290604052915060e01b6020820180517bffffffffffffffffffffffffffffffffffffffffffffffffffffffff8381831617835250505050611d9b565b505050565b6040516001600160a01b0384811660248301528381166044830152606482018390526119cd9186918216906323b872dd90608401611948565b50505050565b6040516306ca51cd60e41b81526001600160a01b0382811660048301526000918291829182917f00000000000000000000000000000000000000000000000000000000000000001690636ca51cd090602401602060405180830381865afa158015611a42573d6000803e3d6000fd5b505050506040513d601f19601f82011682018060405250810190611a669190612177565b93506001600160a01b038416611a9a57604051634e0bb45960e01b81526001600160a01b038616600482015260240161098e565b5050835460018501546001600160801b038083169350600160801b909204909116906000611ac88385612148565b90508015611ba257604051630ad0753560e11b81526001600160a01b0386811660048301526000917f0000000000000000000000000000000000000000000000000000000000000000909116906315a0ea6a906024016020604051808303816000875af1158015611b3d573d6000803e3d6000fd5b505050506040513d601f19601f82011682018060405250810190611b619190612231565b90508015611ba05781611b826d04ee2d6d415b85acef8100000000836121d8565b611b8c91906121ef565b611b969084612148565b6001890181905592505b505b5092959194509250565b600061081c836001600160a01b038416611ccc565b600061081c836001600160a01b0384165b60008181526001830160205260408120548015611cbb576000611bf6600183612135565b8554909150600090611c0a90600190612135565b9050808214611c6f576000866000018281548110611c2a57611c2a612109565b9060005260206000200154905080876000018481548110611c4d57611c4d612109565b6000918252602080832090910192909255918252600188019052604090208390555b8554869080611c8057611c8061224a565b6001900381819060005260206000200160009055905585600101600086815260200190815260200160002060009055600193505050506104e2565b60009150506104e2565b5092915050565b6000818152600183016020526040812054611d13575081546001818101845560008481526020808220909301849055845484825282860190935260409020919091556104e2565b5060006104e2565b7ff0c57e16840df040f15088dc2f81fe391c3923bec73e23a9662efc9c229c6a005468010000000000000000900460ff1661190357604051631afcd79f60e31b815260040160405180910390fd5b61186f611d1b565b6000826000018281548110611d8857611d88612109565b9060005260206000200154905092915050565b6000611db06001600160a01b03841683611dfe565b90508051600014158015611dd5575080806020019051810190611dd39190612260565b155b1561198f57604051635274afe760e01b81526001600160a01b038416600482015260240161098e565b606061081c8383600084600080856001600160a01b03168486604051611e249190612282565b60006040518083038185875af1925050503d8060008114611e61576040519150601f19603f3d011682016040523d82523d6000602084013e611e66565b606091505b50915091506118d1868383606082611e8657611e8182611ecd565b61081c565b8151158015611e9d57506001600160a01b0384163b155b15611ec657604051639996b31560e01b81526001600160a01b038516600482015260240161098e565b508061081c565b805115611edd5780518082602001fd5b604051630a12f52160e11b815260040160405180910390fd5b50565b6001600160a01b0381168114611ef657600080fd5b60008060408385031215611f2157600080fd5b8235611f2c81611ef9565b946020939093013593505050565b600060208284031215611f4c57600080fd5b813561081c81611ef9565b60008060008060808587031215611f6d57600080fd5b8435611f7881611ef9565b93506020850135611f8881611ef9565b93969395505050506040820135916060013590565b600080600060608486031215611fb257600080fd5b8335611fbd81611ef9565b92506020840135611fcd81611ef9565b929592945050506040919091013590565b600080600060608486031215611ff357600080fd5b8335611ffe81611ef9565b95602085013595506040909401359392505050565b6000806040838503121561202657600080fd5b823561203181611ef9565b9150602083013561204181611ef9565b809150509250929050565b80356001600160801b038116811461206357600080fd5b919050565b80356001600160501b038116811461206357600080fd5b600080600080600080600060e0888a03121561209a57600080fd5b87356120a581611ef9565b965060208801356120b581611ef9565b95506120c36040890161204c565b94506120d16060890161204c565b93506120df60808901612068565b92506120ed60a08901612068565b91506120fb60c08901612068565b905092959891949750929550565b634e487b7160e01b600052603260045260246000fd5b634e487b7160e01b600052601160045260246000fd5b818103818111156104e2576104e261211f565b808201808211156104e2576104e261211f565b6000600160ff1b82016121705761217061211f565b5060000390565b60006020828403121561218957600080fd5b815161081c81611ef9565b6001600160801b03818116838216019080821115611cc557611cc561211f565b600080604083850312156121c757600080fd5b505080516020909101519092909150565b80820281158282048414176104e2576104e261211f565b60008261220c57634e487b7160e01b600052601260045260246000fd5b500490565b6001600160501b03818116838216019080821115611cc557611cc561211f565b60006020828403121561224357600080fd5b5051919050565b634e487b7160e01b600052603160045260246000fd5b60006020828403121561227257600080fd5b8151801515811461081c57600080fd5b6000825160005b818110156122a35760208186018101518583015201612289565b50600092019182525091905056fe9b779b17422d0df92223018b32b4d1fa46e071723d6817e2486d003becc55f00a2646970667358221220b1a9152a50025b447394d0db33e5739a56cee7ccc90a748900b0460f5554222064736f6c63430008140033",
    "linkReferences": {}
  },
  "methodIdentifiers": {
    "FACTORY()": "2dd31000",
    "claimRewards(address,address)": "f1e42ccd",
    "createVestingSchedule(address,address,uint128,uint128,uint80,uint80,uint80)": "852e78b6",
    "deposit(address,address,uint256,uint256)": "20e8c565",
    "getNumberOfTokensOf(address)": "a23a0125",
    "getNumberOfVestings(address)": "4f8acca3",
    "getNumberOfVestingsOf(address,address)": "d6e925ed",
    "getPendingRewards(address,address)": "7a27db57",
    "getReleasableAmount(address,uint256)": "eb9c8a1a",
    "getStakeOf(address,address)": "762cf138",
    "getTokenOf(address,uint256)": "d5f524bb",
    "getTotalStake(address)": "1e7ff8f6",
    "getVestedAmount(address,uint256,uint256)": "5bbfef19",
    "getVestingIndexOf(address,address,uint256)": "a8505242",
    "getVestingScheduleAt(address,uint256)": "18943657",
    "initialize()": "8129fc1c",
    "transferVesting(address,address,uint256)": "4bcec580",
    "unlock(address,uint256)": "7eee288d",
    "withdraw(address,address,uint256)": "d9caed12"
  },
  "id": 78
}